:100000000C94BA020C94D7020C94D7020C94D70229
:100010000C94D7020C94D7020C94D7020C94D702FC
:100020000C94D7020C94D7020C94C12A0C947D2A0C
:100030000C94BE2B0C94D7020C94D7020C94D702CC
:100040000C94D7020C94D7020C94D7020C94D702CC
:100050000C94D7020C949A2B0C94D7020C94D702D0
:100060000C94D7020C94D7020C94D7020C94D702AC
:100070000C94D7020C94D7020C94D7020C94D7029C
:100080000C94D7020C94D7020C94D7020C94D7028C
:100090000C94D7020C94D7020C94D7020C94D7027C
:1000A0000C94D7020C94D7020C94D70205010902D4
:1000B000A10185020901A100050919012905150001
:1000C00025019505750181029501750381010501E1
:1000D000093009311581257F950275088106093897
:1000E0001581257F950175088106050C0A380215D2
:1000F00081257F950175088106C0C00660FF0961F2
:10010000A1010962150026FF0095207508810209EA
:1001100063150026FF00952075089102C0050109AE
:1001200006A101050719E029E715002501950875C5
:100130000181029501750881010507190029FF1544
:100140000026FF009506750881000508190129059C
:10015000950575019102950175039101C0FD377AEE
:10016000585A000004E6D6B44602002101160000E9
:1001700000742FE5A3E0005C004C5D003D8889A67B
:1001800054750A36E182AEFA7A1AA6FCA2ED494A03
:1001900042365E7177BBD058A05C6FB1011EC6A21B
:1001A0005743CE299E83C742F0397B06D77A33A2C4
:1001B0005D04CDF332A14F3C4FC1FE8983F8236823
:1001C000A8BF4E4B1F921400008F693745C3C93238
:1001D000990001685DCD7978981FB6F37D01000024
:1001E000000004595A00010101010101010101024D
:1001F00002020202020202020303030303030303D7
:1002000004040404040404050505050506060606A1
:1002100006070707070708080808090909090A0A5D
:100220000A0B0B0B0C0C0C0D0D0D0E0E0E0F0F0F01
:10023000101011111112121313141415151616178C
:1002400017181819191A1A1B1B1C1D1D1E1E1F20FA
:1002500020212222232424252626272829292A2B47
:100260002C2D2D2E2F30313232333435363738396C
:100270003A3B3C3D3E3F4041424344454647484966
:100280004A4C4D4E4F50515354555658595A5B5D38
:100290005E5F616264656668696B6C6D6F707273D6
:1002A0007577787A7B7D7E8082838587888A8C8E3D
:1002B0008F91939596989A9C9EA0A2A3A5A7A9AB6F
:1002C000ADAFB1B3B5B7BABCBEC0C2C4C6C9CBCD61
:1002D000CFD1D4D6D8DBDDDFE2E4E7E9EBEEF0F313
:1002E000F5F8FAFDFF3E4152004642500051004FE2
:1002F0000001004B0003514A004E004D0003510124
:100300000001000100010001000100C25C0100D1F8
:100310005CCD5CC55C010001008603D10C030D00BF
:1003200000020002008203D10C030D000003000153
:10033000008703D10C030D0000040002006C03D100
:100340000C030D4406050001008803D10C030D00C9
:1003500000060002006E03D10C030D00000700022E
:10036000008403D10C030D0000080001008903D1B3
:100370000C030D0000090002007003D10C030D1FD7
:10038000060A0002007203D10C030D1F060B0002C7
:10039000007403D10C030D1F060C0002007603D17C
:1003A0000C030D1F060D0002007803D10C030D1F76
:1003B000060E0002007A03D10C030D1F060F000287
:1003C000007C03D10C030D1F06100002007E03D138
:1003D0000C030D1F06110002008003D10C030D1F3A
:1003E00006120002008A03D10C030D000013000264
:1003F000008C03D10C030D0000140001008E03D10A
:100400000C030D0000150000000000A505A5150057
:100410000009025B00030100A0FA090400000103C7
:10042000010100092111010001224000070581039B
:100430000800010904010002030000000921110164
:1004400000012222000705820320000107050303A3
:10045000200001090402000103000000092111012C
:100460000001224F00070584032000011201000251
:1004700000000008EDFE60300100010203011C03D2
:100480007600690061006C003A00660036003400B6
:100490006300320062003300630000000E03680056
:1004A0006900660075006D006900000012037200AB
:1004B000690063006F006E006B0065006E00000055
:1004C0000403090400000000000000000000000018
:1004D000000000000000000000000000000000001C
:1004E00000000000000000007E0F00D4FFFFFFC7E7
:1004F0000000007800000000000000002A2B280007
:1005000000000000000000000000000000000029C2
:10051000000000002C1E3420212224342627252E02
:10052000362D3738271E1F2021222324252633333A
:10053000362E37381F0405060708090A0B0C0D0E66
:100540000F101112131415161718191A1B1C1D2F32
:100550003130232D350405060708090A0B0C0D0E52
:100560000F101112131415161718191A1B1C1D2F12
:100570003130354C11241FBECFEFDAE0DEBFCDBFE6
:1005800011E0A0E0B1E0E4E0FAE602C005900D92CF
:10059000A633B107D9F724E0A6E3B1E001C01D926C
:1005A000A137B207E1F70E94E52B0C94D5340C94E7
:1005B0000000E8EDF0E080818E7F80831092E20001
:1005C0001092DA001092E100A0EEB0E08C91816010
:1005D0008C9380818F77808319BCA7EDB0E08C91DC
:1005E0008E7F8C9380818F7E808310925804089533
:1005F0002091E4003091E50095E6A9012091EC00FE
:10060000822F817020FF06C08091E80080FF06C025
:1006100080E008952091E80022FD1AC080916E04C8
:10062000882389F0853089F08091EB0085FD0FC02B
:100630002091E4003091E50042175307F9F2915000
:10064000E1F684E0089582E0089583E0089581E072
:100650000895EF92FF920F931F93CF937C018B012C
:100660000E94F802C82F811117C08091E80085FD13
:100670000BC08091E8008E778093E8000E94F8021A
:10068000882399F3C82F08C0F70181917F018093D7
:10069000F1000150110949F78C2FCF911F910F9153
:1006A000FF90EF900895CF93FC0180916E04843009
:1006B00001F5C091E900CF702091EC00922F91706C
:1006C00020FD90E8C92B82E08093E9008091E8004A
:1006D00080FF0CC050E040E060E270E0CF010E947B
:1006E00029038091E8008E778093E800CF70C09353
:1006F000E900CF9108958091660487FF13C080912F
:10070000E80082FF06C08091E8008B778093E800C4
:1007100004C080916E048111F2CF089580916E041F
:100720008823D9F38091E80080FFF8CF8091E8001A
:100730008E77ECCF982F9093E900242F762F50E0FE
:10074000891731F07091EC002091ED005091F0008C
:1007500021FD07C09F5F973071F78093E90081E02A
:1007600008953091EB003E7F3093EB003091ED0027
:100770003D7F3093ED003091EB0031603093EB0022
:100780007093EC002093ED005093F0002091EE0068
:1007900027FDE0CF80E00895B0E0A0E0E2EDF3E0D7
:1007A0000C942234C8EDD0E088818F7E8883E7EDF9
:1007B000F0E080818160808384E082BF81E080936B
:1007C000580488818E7F888302EE10E0F801108241
:1007D0001092DA0081EEC82ED12CF60110828881A9
:1007E0008F77888388818068888388818F7D8883DC
:1007F00019BC10926E041092650410926404109259
:10080000630490EEE92EF12CF70180818B7F8083C9
:1008100088818160888342E060E080E00E949A03E2
:10082000F60180818E7F8083F801808181608083E2
:10083000808188608083F70180818E7F80838881BA
:1008400080618883CDB7DEB7E8E00C943E34FC01CC
:1008500080916C0490916D0486179707A0F0611544
:10086000710529F49091E8009E779093E80090E05C
:100870006115710551F4911108C08091E80082FF63
:1008800034C080E00895BC01F2CF80916E048823CB
:10089000C1F18530C1F18091E80083FD30C08091C5
:1008A000E80082FDEACF8091E80080FFE1CF8091EF
:1008B000F3002091F200382F6115710519F02830EE
:1008C000310558F091E02830310509F090E0209191
:1008D000E8002E772093E800CBCF81918093F10040
:1008E000615071092F5F3F4FE7CF80916E048823DD
:1008F00041F0853041F08091E80083FFBECF81E078
:10090000089582E0089583E0089508950895089574
:1009100080915A04089587E797E7909301088093A0
:10092000000888E19AE00FB6F894A89580936000DB
:100930000FBE90936000FFCF9C014FB7F894809159
:10094000540490915504A0915604B09157044FBFA0
:10095000821B930B08952FB7F89460915404709103
:10096000550480915604909157042FBF08952FB7D6
:10097000F8948091540490915504A0915604B0913C
:1009800057042FBF08959C01FC0132969FEF80E031
:100990004191461751F09F3F19F4411101C0982F22
:1009A0008F5F8630A9F79F3F09F40895290F311D05
:1009B00097FD3A95F90162830895E0915104F09111
:1009C0005204309729F00190F081E02D09950895A7
:1009D00080E00895CF93DF93EC014091440450915F
:1009E000450460914604709147042FB7F8948091B4
:1009F000540490915504A0915604B09157042FBF10
:100A0000841B950BA60BB70B843F9140A105B10544
:100A100018F58091440490914504A0914604B0914A
:100A200047048093400490934104A0934204B09300
:100A3000430484EF91E0A0E0B0E080933C04909305
:100A40003D04A0933E04B0933F04D0934C04C09364
:100A50004B04DF91CF9108950E94AB046093400452
:100A600070934104809342049093430482E390E0A6
:100A7000A0E0B0E0E2CFFC018481862351F49281B2
:100A80009923B9F06923808583FF05C081E0611156
:100A90000FC080E00895892F8F7092959F70982BDA
:100AA000862F8F7062956F70682B81E09613F1CF5F
:100AB000089581E0FDCF452B39F0682381E06F3F39
:100AC00009F080E08170089581E0FCCFDC01609145
:100AD000380480913904962F891301C00895292F75
:100AE00030E0F901EE0FFF1FE05DFB4F40815181C7
:100AF0004A175B07A1F487E08A9FA0018B9F500DE6
:100B0000112448505C4F81E0FA0184839613E6CFAC
:100B10002F5F3F4F237033272093380408952F5FB2
:100B20003F4F922F9370D8CF109295031092940359
:100B3000E8EFF3E08581811102C0148216823796B6
:100B400084E0E033F807B1F70895B0E0A0E0EBEA05
:100B5000F5E00C9420348FEF9FEF4430510508F4FA
:100B600069C04091490341FB882780F990E0880FD4
:100B7000991F42FB002700F910E0000F111F000F22
:100B8000111F802B912B40FBCC24C0F8D12C8C2939
:100B90009D2943FB222720F9C22FE0E0DE2F53E0FE
:100BA000CC0FDD1F5A95E1F78C2B9D2B44FBAA2718
:100BB000A0F9B0E0E4E0AA0FBB1FEA95E1F78A2BA9
:100BC0009B2B45FBEE27E0F9F0E0A5E0EE0FFF1FC1
:100BD000AA95E1F78E2B9F2B46FB222720F930E0C8
:100BE000B6E0220F331FBA95E1F7822B932B47FB18
:100BF000222720F930E03695322F22273795279586
:100C0000822B932B20914A03322F3170F32EE82E42
:100C1000F92A26952170B22EBB0CA82EBF28C5013B
:100C2000BB0CAA0BBB0BFB0180839183A283B38314
:100C300090E080E0CDB7DEB7EAE00C943C34ECE61F
:100C4000F3E0848195812AE030E0B9010E94E3332A
:100C50006093140186818093130182858093120131
:100C600084858093110186859785B9010E94E333BD
:100C700060931001808980930F01828980930E0117
:100C8000848980930D01089580916C0390916D0388
:100C900090931601809315010895E8EFF1E090E03C
:100CA00080E066ED79E24DEF59E22BE439E277839B
:100CB000668351874087338722879587848701968B
:100CC0003E968830910599F7089581152CE5920795
:100CD00041F42091430330914403232B11F490E01D
:100CE00080E00895FA01811101C0FB010995089582
:100CF0008091E101982F9E7F39F48091E10181700C
:100D000082608093E10108958430B8F708950E94CD
:100D1000B7049C019091CB018091CC01982B21F0DC
:100D20003093C8012093C7019091CD018091CE01ED
:100D3000982B21F03093C6012093C501E091510416
:100D4000F0915204309749F082E08093C901048009
:100D5000F581E02D89EC91E0099508959091CB0102
:100D6000803F59F48091CC0187FF0DC01092CC01D7
:100D700091110BC01092C30108C0813F81F4809192
:100D8000CC0118169CF3992381F08091CD019091AC
:100D9000CE01892B09F064C01092C2010895823FF0
:100DA00049F497FFF0CF1092CB018091CC018111D3
:100DB000ECCFE0CF833F19F41916ACF3E4CF2091C8
:100DC000CD01893F29F41216F4F61092CD01DBCF44
:100DD0008A3F19F427FFD7CFF8CF2091CE018B3F60
:100DE00029F427FFD0CF1092CE01CDCF8C3F19F43C
:100DF0001216CCF3C8CF843F31F48091CA018E7FA4
:100E00008093CA01C0CF853F21F48091CA018D7FB4
:100E1000F7CF863F21F48091CA018B7FF1CF873FC6
:100E200021F48091CA01877FEBCF883F21F4809124
:100E3000CA018F7EE5CF8D3F31F48091C4018E7F52
:100E40008093C401A0CF8E3F21F48091C4018D7F97
:100E5000F7CF8F3F09F097CF8091C4018B7FF0CF00
:100E600008958091C40180FF0CC060910E0170E074
:100E700075956795759567956115710549F1862F8B
:100E8000089581FF06C060910E0170E07595679529
:100E9000F3CF60910E0182FD0BC09091C2019923A6
:100EA000A1F060910D0180910E01961738F0682F26
:100EB00070E06038710500F38FE70895899FC001E5
:100EC000112470E00E94F733F4CF61E070E0D7CFD7
:100ED00081E008958091C40160917403709175035D
:100EE00080FF16C020911201269FC001279F900D00
:100EF0001124BC01769567957695679560387105E4
:100F000008F043C06115710509F441C0862F0895AA
:100F100081FF0BC020911201269FC001279F900DD9
:100F20001124BC0176956795E9CF82FF09C08091B5
:100F300012019B01829FB001839F700D1124DECFAF
:100F40002091C3012223D1F29091110180911201CD
:100F5000482F50E0291748F0CB01849FB001859FAE
:100F6000700D949F700D1124C9CF289F90011124FA
:100F7000269FA001279F500D369F500D1124692FE9
:100F800070E0CA010E94E333B9CF8FE7089581E092
:100F90000895803F31F40E946A0781958093CC01C7
:100FA0000895813F19F40E946A07F8CF823F31F417
:100FB0000E946A0781958093CB010895833F19F4BD
:100FC0000E946A07F8CF893F29F40E943107809375
:100FD000CD0108958A3F21F40E9431078195F7CF12
:100FE0008B3F31F40E94310781958093CE010895A3
:100FF0008C3F19F40E943107F8CF843F31F480917F
:10100000CA0181608093CA010895853F21F48091CF
:10101000CA018260F7CF863F21F48091CA018460C3
:10102000F1CF873F21F48091CA018860EBCF883FE0
:1010300021F48091CA018061E5CF8D3F31F4809128
:10104000C40181608093C40108958E3F21F4809192
:10105000C4018260F7CF8F3FB9F78091C4018460EB
:10106000F1CF80E00895F894E82FE295EF70F0E07A
:1010700031A1282F2F7081E090E001C0880F2A95C0
:10108000EAF7982F9095932391A392A1892B82A39D
:10109000789408959091490392FF06C0282F2871F3
:1010A0002830F9F4877F846093FF06C0282F2871C9
:1010B0002831F1F4877E846120914A0320FF06C025
:1010C000382F38713830D9F4877F816021FF06C00E
:1010D000282F28712831D1F4877E816194FD877E85
:1010E0000895282F24712430F9F68B7F8860DCCF97
:1010F000282F2471243101F78B7E8861DDCF382FB2
:101100003171313019F78E7F8860E0CF282F21713F
:10111000213121F78E7E8861E1CFCF93DF93EC01FF
:101120008238910589F1E0F58133910509F499C080
:1011300028F58932910509F489C08A9709F498C085
:10114000C11522E5D20708F0B1C0C11531E5D307BA
:1011500008F013C1CF3FD10511F008F097C0C03F90
:10116000D10508F0F0C0C53AD10508F088C0C430F8
:10117000D10520F5C130D10509F145C08533910570
:1011800009F45FC0C997E1F680914903837009F0C3
:1011900029C180914A0383FF11C0C9E2D0E00EC08B
:1011A000833E910599F170F4803E910501F1823EF4
:1011B000910531F68091490382FD21C0CE01DF9176
:1011C000CF910895863E910561F1873E910571F1B9
:1011D000843E910509F0B4CF80914A0381FFEECFA0
:1011E00080914903C7EED0E084FD0DC0E7CF809128
:1011F000490380FD33C090914A0390FFDFCFC3EED7
:10120000D0E084FFDBCFD0E0C0E0D8CF80914903AD
:1012100082FDE5C090914A0390FDE4C084FFCECFEB
:10122000F2CF8091490383FDDDCFC8CF8091490380
:1012300083FDDBC090914A0391FFF0CFC4EED0E074
:10124000BDCF8091490385FFB9CFA7CF80914903D6
:1012500085FDCEC080914A0383FFB0CFC9E3D0E0C3
:10126000ADCF8091490386FFA9CFCAE2D0E0A6CFD7
:101270008091490386FFA2CFC1E3D0E09FCFCE018A
:10128000815E9109079708F499CFBDCFC11540E55C
:10129000D40708F05DC0C11580E4D80708F055C038
:1012A000C11520E2D20708F489CFADCFC11536E5CC
:1012B000D30718F5C11545E5D40708F077C0C11567
:1012C00084E5D80708F06DC09C2F969596959E01F1
:1012D00023703327C115D34508F454C0C1E0D0E0D2
:1012E00002C0CC0FDD1F2A95E2F730E2939FC001C8
:1012F0001124C82BD92BDA6861CFC1158AE5D8072C
:1013000078F4C11529E5D20708F05BC0C11538E5AE
:10131000D30708F478CFDC2FCC27C06FD06A4ECF2C
:10132000CE0190568115904208F06DCF8D2F8F71B0
:101330000E944A0890E0982F882788279F719C0177
:101340002C2BE9013CC0D06539CFDF70D06A36CF95
:101350002C2F26952695237080E2289F900111243A
:101360008C2F8370C1E0D0E002C0CC0FDD1F8A95C6
:10137000E2F7C22BD32BDD6821CFDC2FCC27C16F46
:10138000D06A1CCFC1E0D0E002C0CC0FDD1F2A958F
:10139000E2F720E2929FC0011124C82BD92BDC6810
:1013A0000DCFDC2FCC27C46FD06A08CF8C2F0E94C2
:1013B0004A08C82FD0E0DC2FCC27CC27DF71D062C1
:1013C000FDCE8C2F8F700E944A0834E0D695C795C9
:1013D0003A95E1F7CF709C2FEC01D069EFCEC2EEC9
:1013E000D0E0ECCEC0EED0E0E9CEC6EED0E0E6CE66
:1013F000C5E3D0E0E3CE8091A401882331F01092C0
:10140000A4011092A3011092A2010895CF93C82FB6
:1014100080914A0382FF0CC08091A4018C1741F097
:101420000E94B7049093A3018093A201C093A401EA
:10143000CF910895809590917004982390937004B3
:101440000895809590914B03982390934B030895B2
:1014500090914B03892B80934B030895109299012F
:101460001092980110929701089580916E039091C7
:101470006F03892B89F00E94B7042091A20130915B
:10148000A301AC01421B530B81E020916E0330910C
:101490006F034217530708F480E081700895EAE370
:1014A000F1E09191891303C0DF0111971C9291E043
:1014B000E034F907B1F70895209196019091550114
:1014C000291302C080E0089530E0F90153E0EE0FE7
:1014D000FF1F5A95E1F7EA5AFE4F5181561306C095
:1014E0005081581303C05281541304C02F5F3F4FE3
:1014F0002770E6CF81E00895809196019091550183
:10150000981301C008958F5F8770FACF923020F54D
:10151000833010F5482F50E083E0989F400D511D17
:101520001124EAE4F1E070E060E080E0219130E035
:10153000042E02C0369527950A94E2F721703327CE
:10154000062E01C0220F0A94EAF7822B6F5F7F4FAD
:101550006330710559F7089580E00895923028F5B9
:10156000833018F523E0929F800D112421E001C003
:10157000220F8A95EAF7EAE4F1E050E040E070E0FB
:101580003191DF011197CB01042E02C0969587950A
:101590000A94E2F7817081958327822383278C93B5
:1015A0004F5F5F4F4330510559F7089592959F70F3
:1015B000963091F058F4925F9F70923058F4803FCB
:1015C00019F030F4883E30F481E008959A5FF4CF4A
:1015D000843FD1F380E00895883EB0F3813FD1F796
:1015E000F3CF9C013A9521153F4150F5FC01EE27C0
:1015F000F170BC0166277270AC01442754709C01E5
:101600002227387094FF0EC080E1EF2B09F480E0B0
:10161000672B09F08062452B09F08064232B89F049
:101620008068089581E0EF2B09F480E0672B09F0D2
:101630008260452B09F08460232B19F0886008959F
:1016400080E008959C0184E08093E9009FEF809101
:10165000E800915085FD06C085ED8A95F1F7000000
:101660009111F5CF8091E80085FF0CC050E040E07B
:1016700066E070E0C9010E9429038091E8008E773E
:101680008093E8000895CF93DF93EC0181E080938D
:10169000E9008FEF9091E800815095FD06C095ED2F
:1016A0009A95F1F700008111F5CF8091E80085FF50
:1016B00014C050E040E068E070E0CE010E942903D1
:1016C0008091E8008E778093E80088E0FE01ABE52A
:1016D000B4E001900D928A95E1F7DF91CF910895E2
:1016E000019708F40895EFE9FFE03197F1F700C0A2
:1016F0000000F6CF8091E10180FD0AC0EFECF1E03F
:10170000118210821282339651E0E13EF507C1F753
:10171000539A3BB1377F2BB128604FB7F8948FECC9
:1017200091E0FC015191CF0168E02BB9000000C0AD
:1017300057FF3BB9550F000000C000C000C03BB9C7
:1017400000C06A9591F7F1E0813E9F0751F74FBFC6
:101750008FE594E00197F1F700C0000008950F9322
:101760001F93CF93DF930CE613E0C7E5D0E0CE01E3
:101770000E948534F80181938F012196CB37D105E2
:10178000B1F7CFE1D3E0FE0185919491009711F07C
:10179000FC0109952C96F4E0CB31DF07A1F7DF912E
:1017A000CF911F910F9108950F931F93CF93DF93C4
:1017B000843030F5623020F5433010F5C42FD0E08E
:1017C000CC0FDD1F26E0629FC00DD11D11243CE02F
:1017D000839FC00DD11D1124CE0187960E948534B0
:1017E000082F10E0102F0027CE0188960E94853424
:1017F0009801282BC901DF91CF911F910F91089576
:1018000090E080E0F8CF462F2091470330914803C5
:10181000232B99F4703F39F4603F79F480914503AC
:10182000909146030895843040F4723030F4633070
:1018300020F4672F0E94D40B089590E080E0089573
:10184000CF92DF92FF920F931F93CF93DF936C01A0
:1018500000916F048091A501082BC7E0D0E010E053
:10186000FC2EC8010C2E02C0959587950A94E2F7CC
:1018700080FD0CC02197A0F7F12C8F2DDF91CF9127
:101880001F910F91FF90DF90CF900895B6018C2F9C
:101890000E94030C0E948D08019761F3EECFCF9355
:1018A000DF93EC010E94200CBE010E94030C0E94F9
:1018B0008D08DF91CF910895CF93DF93EC014B8199
:1018C0005C81698188810E945B05811110C08E81D5
:1018D0009F81009739F00E948D080E94D60ADF91FF
:1018E000CF910895888199810E944F0CF6CF80E0B6
:1018F000F6CFA5E0B0E0EFE7FCE00C942734498395
:101900005A8389819A81662399F0222389F00E9463
:10191000200C182F682F89819A810E94AE0A698154
:101920007A81812F0E94030C2596E3E00C944334C6
:101930000E94860A182FF3CFFC01262F86819781FB
:10194000009739F4408151816281738184810E94C2
:10195000790C089583E290E00E9485348E3A89F4F0
:1019600084E290E00E948534823459F485E290E06C
:101970000E94853491E08E3509F090E0892F8170C6
:10198000089580E0FCCFCF9384E090E00E948534FE
:10199000C82F82E290E00E948534982F8C2FCF913F
:1019A0000895DB01FC0132962591349142175307CB
:1019B00058F0FC01349665917491A901CD010E9403
:1019C000653490E080E008958FEF9FEF08950F93C6
:1019D0001F93CF93DF930CE613E0C7E5D0E0CE0171
:1019E0000E948534F80161918F01681719F0CE01CA
:1019F0000E9499342196CB37D10589F7DF91CF9199
:101A00001F910F910895DA019C012E5F3F4FF9015C
:101A100045915491F90125913491A217B30758F0DB
:101A2000FC013496859194910E9465340E94E70CE4
:101A300090E080E008958FEF9FEF0895CF93DF93BC
:101A4000CBE6D1E060E0CE010E9499342196C11529
:101A500084E0D807B9F7DF91CF9108951F93CF9312
:101A6000DF93122F8430E0F46230D0F44330C0F4BE
:101A7000C42FD0E0CC0FDD1F96E0699FC00DD11DB3
:101A800011249CE0899FC00DD11D1124632FCE012C
:101A900087960E949934612FCE0188960E949934CE
:101AA000DF91CF911F910895CF93C82F6FEF8111D0
:101AB0006EEA83E290E00E9499346FEFC11162E414
:101AC00084E290E00E9499346FEFC1116EE585E2E7
:101AD00090E00E949934CF910895CF93C92F682F39
:101AE00084E090E00E9499346C2F82E290E00E94A2
:101AF0009934CF9108959B01883070F49AE0899FC2
:101B0000B001112465587F4F4AE050E0C9010E949E
:101B1000753490E080E008958FEF9FEF0895AAE07C
:101B2000B0E0E5E9FDE00C9428349C0137552F3FE7
:101B3000310509F068F4BE016F5F7F4F0E947B0D95
:101B4000892B31F489859A852A96E2E00C944434F5
:101B50008091840390918503F7CFAAE0B0E0E3EB96
:101B6000FDE00C941E340BEC12E089EBC82E82E0F1
:101B7000D82E9BE1E92EFF24F39427E0922E38EB38
:101B8000A32E32E0B32E88248394D6010D931D93A7
:101B90006D014AE050E0B701CE0101960E94753414
:101BA000F8013896DF01892D1D928A95E9F7898120
:101BB0009A81D80111969C938E938F8112968C9363
:101BC00012978D8113968C931397888514968C9316
:101BD0001497898515968C9315978B819C81179600
:101BE0009C938E93169718961C9218978A8587FF58
:101BF0003CC01E961C921E921D9780FF03C0D80108
:101C000018968C9281FF04C0F801908592609087AD
:101C100082FF07C0D80118969C9118979460189677
:101C20009C9383FF04C0F80190859860908784FF9F
:101C300007C0D80118969C911897906118969C93AC
:101C400085FF04C0F801808580628087015F1F4F97
:101C5000FAE0EF0EF11C8BE6E81681E0F80609F0D9
:101C600094CF2A96ECE00C943A34F801B686A58617
:101C7000C4CFAAE0B0E0EFE3FEE00C942234E8E643
:101C8000F2E080E5DF011D928A95E9F7E8EFF3E0E5
:101C900088E3DF011D928A95E9F788E6C82E82E085
:101CA000D82E7F010BEC10E0F701D182C0824AE010
:101CB00050E0B801CE0101960E94753488E0FE0123
:101CC0003196D60101900D928A95E1F789859A8522
:101CD000D70113969C938E931297BAE0CB0ED11C2A
:101CE000E7E0EE0EF11C065F1F4F0B31F1E01F071E
:101CF000D9F62A96E8E00C943E34CF92DF92EF9228
:101D0000FF926B017C010E947806B701A60188E072
:101D100090E00E94AB34FF90EF90DF90CF90089559
:101D2000B0E0A0E0E6E9FEE00C941E34D82FC62F08
:101D3000D42E822EC090E101C0FE32C08C2D8E7F49
:101D40008230E1F4E42FF0E0EB51FE4F61112DC041
:101D50002491F22FE22FC0FE11C0AFECB1E081EE72
:101D600091E01196EC9311972C931296FC93129795
:101D700013968A179B07A9F70E947A0BD093E2016A
:101D8000C093E301D092E401882051F06091E10119
:101D90007091E2018091E3019091E4010E947D0E37
:101DA000CDB7DEB7ECE00C943A34E62EF12CE4919A
:101DB0009E2E0E2F10E026E0D29FC00111242FEF9F
:101DC00030E0B9010E94E3338D2F90E0880F991F16
:101DD000F5E5F69FA001F79F500D1124841B950B8C
:101DE000B82EBB0CB80EA9014E195F09409FC00167
:101DF000419F900D509F900D1124F92FCB9DA00174
:101E00001124452F5527D901A41BB50BA09FA00174
:101E1000A19F500DB09F500D1124D901AB19B109EC
:101E20005D01AE9CD001AF9CB00DBE9CB00D1124E5
:101E3000AB2FBB272A1B3B0B209FD001219FB00D4E
:101E4000309FB00D11242B2F62307105A1F050F49A
:101E50006115710509F47FCF6130710581F0292F7B
:101E6000F52F79CF6430710569F080F06630710527
:101E700009F471CFF4CF2E2FE92FFB2F6CCF2E2F2B
:101E8000E52F69CF292FFE2FEB2F65CFE92FF92DF5
:101E9000252F61CFE1EEF1E0438121E1421B08F4FF
:101EA00040E021E0628181810E94900E0895E1EE80
:101EB000F1E0438121E1420F08F44FEF21E062811C
:101EC00081810E94900E0895E1EEF1E0628121E1AE
:101ED000621B08F460E021E0438181810E94900E42
:101EE0000895E1EEF1E0628121E1620F08F46FEF05
:101EF00021E0438181810E94900E0895E1EEF1E09E
:101F0000818121E04381628185500E94900E089575
:101F1000E1EEF1E0818121E0438162818B5F0E94EB
:101F2000900E08958091E501882319F081508093E7
:101F3000E5016091E1017091E2018091E3019091EE
:101F4000E4010E947D0E08958091E501833018F42C
:101F50008F5F8093E5016091E1017091E2018091D2
:101F6000E3019091E4010E947D0E08958091E101CA
:101F700080FF19C0817082608093E101662351F077
:101F80006091E1017091E2018091E3019091E4019F
:101F90000E947D0E20E04091E4016091E301809178
:101FA000E2010E94900E08958091E1018695815092
:101FB00009F481E061E00E94B60F089561E081E0DC
:101FC0000E94B60F0895E1EEF1E083E08083118274
:101FD0008FEF8283838314826081718182819381F8
:101FE0000E947D0E0895A2E0B0E0E9EFFFE00C94BE
:101FF00021341A82198282E2C82E81E0D82E10E0A4
:1020000000E0EE24E394F12CF60181916F018F3F03
:1020100009F446C0F894E82FE295EF70F0E021A1B2
:102020008F70A70102C0440F551F8A95E2F7CA01BD
:10203000922F982B91A392A18095892382A37894C3
:1020400000C0E4E2F1E0B12C31E021912F3F09F42E
:1020500065C0A22FA295AF70B0E090968C9190E0F1
:102060002F7002C0959587952A95E2F780FD56C09E
:10207000832FB82A330F51E0E732F50731F7F60125
:10208000319780818F3F11F00E94330880EA8A9552
:10209000F1F7E1E0F0E0EC0FFD1FE00FF11FB0827F
:1020A00001301105C1F542E050E0BE016F5F7F4F86
:1020B00089EA91E00E945834892B91F189819A81B3
:1020C0009093AA018093A90181E08093A8010E94C6
:1020D000B7049093A7018093A6018091A6019091E7
:1020E000A7010E949C040597F8F042E050E069EADD
:1020F00071E080EC91E00E945834892BD1F08091FE
:10210000A9019091AA019093C1018093C00181E03F
:102110001092A8010AC001E010E076CF80E0A9CFBC
:102120008091A8018111D9CF80E02296E9E00C943A
:102130003D3480E0EDCF80914B0390917004892B6A
:10214000809338018091A401882309F180916E0366
:1021500090916F03892B29F00E94350A81110E940A
:10216000FB09809138019091A401892B809338015B
:1021700020E08AE391E0FC013191CF0131112F5F22
:10218000F1E080349F07B9F721110E94FB0980918B
:102190004804809590913801892390914904892BB6
:1021A0008093380148E050E06AE971E088E391E00B
:1021B0000E945834892BA9F088E0E8E3F1E0AAE90D
:1021C000B1E001900D928A95E1F7E0915104F09110
:1021D0005204309731F00280F381E02D88E391E0E2
:1021E00009950895CF93DF93EC01EA85FB8530973D
:1021F00019F06C857D8509958B810E941A0A8C8166
:102200000E94210A0E949B1086E0FE0111928A958D
:10221000E9F7DF91CF910895CF93DF93EC018D81A2
:1022200081FD15C082608D83809170049B81892B14
:10223000809370048C810E94280A0E949B10E8857C
:10224000F985309721F06C857D85CE010995109236
:10225000500410924F048D8180FD03C0CE010E9476
:10226000F210DF91CF91089580911701877F8093BD
:10227000170182E00E941A0A8091170184FF06C0AC
:102280008F7E8093170182E00E94280A80911701B7
:1022900085FF06C08F7D8093170180E20E94280A87
:1022A0000E949B100895109270040E949B1086E07B
:1022B000E9ECF1E0DF011D928A95E9F71092C30184
:1022C0001092C2011092C4010E9487060895809363
:1022D0006F040E945311089580916F04982F967097
:1022E000963021F488600E9467110895877FFBCFA4
:1022F00021E030E001C0220F8A95EAF72095809115
:102300006F0482230E94671108959091990180952E
:10231000892380939901282F277091F4282F082E64
:10232000000C330B9217130659F090914A0392FF59
:1023300007C08595859585950E9478110E942E0A83
:10234000089590914A0392FB222720F9281769F0FB
:1023500080FB92F990934A038091490390914A033C
:102360000E946D0D82E00E948511089521E030E009
:1023700001C0220F8A95EAF780916F04822B0E9498
:102380006711089590914A0392FF10C098E0899FC9
:1023900090011124622B609399010E94B6110E9452
:1023A000B704909398018093970108950E94B61105
:1023B00008958093A5010E945311089510924B0334
:1023C000EAE3F1E086E0DF011D928A95E9F70E94D9
:1023D00053110895AAE2B0E0E0EFF1E10C94273444
:1023E00086E694E02091F100DC012D93CD01B4E06C
:1023F0008E369B07B9F780916704833009F472C069
:10240000B8F4813009F449C0823009F4B3C0809136
:10241000E80083FF96C280916604909167049A3029
:1024200008F08FC2E92FF0E0E952FB4C0C940B341A
:102430008A3009F48EC08B3009F471C0893039F7C5
:1024400080916604813219F780916A0490916B043F
:10245000009711F00297D9F68091E800877F80936A
:10246000E8008091E80082FF38C09091F3008091ED
:10247000F200029731F48091F100813011F0863042
:1024800021F48091F10080935A048091E8008B77C9
:102490008093E8000E947B03BACF80916604813A62
:1024A00009F0B5CF8091E800877F8093E8008091A4
:1024B0006A0490916B04892B61F468E08BE594E0E9
:1024C00070E00E9427048091E8008B778093E800F9
:1024D0009ECF60E090E080E0F3CF80916E048111A8
:1024E000C0CF95CF80916604813A09F090CF80915A
:1024F0006A0490916B04892B09F089CF8091E800E0
:10250000877F8093E8008091E80080FFFCCF809176
:1025100019018093F1008091E8008E77B9CF809106
:102520006604813209F073CF80916A0490916B0444
:10253000892B09F06CCF8091E800877F8093E800B9
:102540000E947B0380916804809319010E94DE1130
:102550005ECF80916604813209F059CF8091E80006
:10256000877F8093E8000E947B03809169048093B9
:1025700059044DCF80916604813A09F048CF80918B
:10258000E800877F8093E8008091E80080FFFCCF1F
:1025900080915904BECF803899F0823809F0D1C1BA
:1025A00080916A048F70873008F0CBC18093E90076
:1025B0008091EB0085FB882780F91092E90006C026
:1025C0008091630490916404911182609091E8007D
:1025D000977F9093E8008093F1001092F100809132
:1025E000E8008E77AAC1882309F498C1823009F0E7
:1025F000A8C18091680481119BC180916A048F7089
:102600002FEF280F263008F09CC18093E90020911D
:10261000EB0020FF8DC1933031F48091EB0080629C
:102620008093EB0085C19091EB0090619093EB005B
:1026300021E030E001C0220F8A95EAF72093EA00FA
:102640001092EA008091EB008860EACF811179C195
:10265000109168041F778091E3008078812B80932C
:10266000E3008091E800877F8093E8000E947B036D
:102670008091E80080FFFCCF8091E3008068809328
:10268000E30082E0111183E080936E045AC1805808
:10269000823008F056C120916804309169042C3DC5
:1026A000E3E03E07A1F583E08A838AE289834FB79E
:1026B000F894DE01139620E03EE051E2E32FF0E0D3
:1026C00050935700E49120FF03C0E295EF703F5F05
:1026D000EF708E2F90E0EA30C0F0C7968D939D93F7
:1026E0002F5F243159F74FBF8091E800877F809397
:1026F000E8006AE270E0CE0101960E942704809112
:10270000E8008B778093E8001CC1C096E7CF8091EA
:102710006A0490916B04432F55274330510509F407
:102720004AC078F54130510509F485C08BE590E049
:10273000E1E1F4E04230510509F003C12091E800E5
:10274000277F2093E80020916C0430916D0482175C
:10275000930708F49C0140E02115310509F070C091
:1027600041116EC08091E80082FDC9CF80916E0456
:10277000882329F2853019F28091E80083FFF2CF97
:10278000BECF4132510509F447C04232510509F02C
:10279000D8C08330910508F0D4C0FC01EE0FFF1FB4
:1027A000E65DFE4F0190F081E02D895D9E4FDC01DA
:1027B0008C9190E01DC0332721303105E9F02115BF
:1027C000310579F022303105F9F02330310509F077
:1027D000B8C0EEE7F4E0E4918E2F90E0EEE7F4E08D
:1027E00007C0E0ECF4E0E4918E2F90E0E0ECF4E040
:1027F000009709F4A6C0A2CFECEAF4E0E4918E2F92
:1028000090E0ECEAF4E0F4CFECE9F4E0E4918E2F10
:1028100090E0ECE9F4E0ECCF8330910508F091C052
:10282000880F991FFC01E05DFE4F0190F081E02DC3
:1028300089E090E083CF82E190E0ECE6F4E07ECFA7
:1028400080916E04882309F45ACF853009F457CF5C
:102850008091E80083FD53CF8091E80082FD82CF14
:102860008091E80080FF78CF9091F3008091F20092
:102870002115310519F08830910550F041E0089795
:1028800009F040E08091E8008E778093E80064CF03
:1028900044914093F1003196215031090196E8CFDF
:1028A000803809F04EC08091E800877F8093E8006F
:1028B000809165048093F10092CE811142C0109105
:1028C00068041230F0F58091E800877F8093E8007B
:1028D000109365040E947B03112311F084E005C06E
:1028E0008091E30087FDFACF81E080936E0442E09F
:1028F00061EC81E00E949A0342E261EC84E00E9474
:102900009A0342E261EC82E00E949A0342E260ECA8
:1029100083E00E949A0380916E0413C08091680442
:10292000813079F481E0933009F080E08093640491
:102930001092E9008091E800877F8093E8000E9470
:102940007B038091E80083FF0AC08091E800877FC5
:102950008093E8008091EB0080628093EB00AA9660
:10296000E3E00C944334ECE6F3E0128E138E8FEA2E
:1029700090E09183808325E0248F88E893E193831E
:1029800082838AE090E09583848344E150E057831A
:10299000468348E050E051874087938782876EE105
:1029A00070E0758764879787868780E590E0918BD4
:1029B000808B538B428B48E250E0558B448B42E333
:1029C00050E0578B468B48EC50E0518F408F158E6E
:1029D000178E168E91A380A322A30E94E70C0E945B
:1029E000DE1110924A0310924903EAE4F3E0808179
:1029F000846080838091490390914A030E946D0D09
:102A00000E94AF0B0895AEE1B0E0E9E0F5E10C946F
:102A10002034C0904303D090440381E090E0909331
:102A200044038093430385EEE82E82E0F82E10E005
:102A3000570100E0F50125913491402F60E0812F8E
:102A40000E942E0D82E0A80EB11C0F5F033091F79B
:102A50005701E6E0AE0EB11C00E0F501259134917E
:102A6000402F61E0812F0E942E0D82E0A80EB11C44
:102A70000F5F033091F7FCE0EF0EF11C1F5F143085
:102A8000B9F60E94B3141A8219821C821B821E821C
:102A90001D8218861F8288EC90E09A8789870BE751
:102AA00010E04AE050E0B801CE0101960E94BD342A
:102AB000065F1F4F0B3C1105A1F77E01EBE0EE0E08
:102AC000F11C8AE0F70111928A95E9F74AE050E09B
:102AD000B801C7010E94BD34065F1F4F0B31F1E002
:102AE0001F07A1F77E0185E1E80EF11C8AE0F701DE
:102AF00011928A95E9F78FEF9FEF9A8F898F87E080
:102B00008E8F4AE050E0B801C7010E94BD34065FD5
:102B10001F4F0B36F1E01F07A1F7D0924403C0927C
:102B200043036E96EAE00C943C3480E00E94540D1E
:102B300060E086E290E00E9499340E9403150E94B2
:102B40001E0D81E00E94540D0895CF92DF92EF9206
:102B5000FF928FEF9FEF4430510508F46AC0FB01EC
:102B6000C080D180E280F3800E94DE118091490311
:102B7000C0FA80F9B701A6017695679557954795F4
:102B800040FB81F9B701A60122E07695679557953C
:102B900047952A95D1F740FB82F9B701A60133E0AA
:102BA00076956795579547953A95D1F740FB83F908
:102BB000B701A601E4E07695679557954795EA95A4
:102BC000D1F740FB84F9B701A601F5E0769567954A
:102BD00057954795FA95D1F740FB85F9B701A601BE
:102BE000A6E07695679557954795AA95D1F740FB4E
:102BF00086F9B701A601B7E0769567955795479591
:102C0000BA95D1F740FB87F98093490380914A0335
:102C1000D0FA80F9D1FACC24C0F8C0FA81F98093B7
:102C20004A038091490390914A030E946D0D90E000
:102C300080E0FF90EF90DF90CF9008950E94DE112A
:102C40002FEF84E39CE0215080409040E1F700C0EA
:102C5000000088E19AE00FB6F894A8958093600090
:102C60000FBE90936000FFCF882321F00E941A0AC4
:102C70000E949B100895882339F090917004982B3E
:102C8000909370040E949B100895882321F00E9465
:102C9000210A0E949B100895882321F00E94280A8F
:102CA0000E949B100895882309F450C09CEF980F50
:102CB000913A28F40E944F0A0E949B10089590E2D6
:102CC000980F983050F4877091E001C0990F8A9561
:102CD000EAF7892F0E94210AEFCF9BE5980F9330E6
:102CE000B8F48091460190914701892B79F11092B7
:102CF000470110924601E0915104F091520430973F
:102D000029F10680F781E02D90E080E00995089593
:102D100098E5980F9731A0F480914801909149016E
:102D2000892BA1F01092490110924801E0915104C1
:102D3000F0915204309751F00084F185E02DE4CFFA
:102D4000803F20F00E94AE060E9487060895FF9201
:102D50000F931F93CF93DF93F82E00914D041091A2
:102D60004E040115110509F449C010924C0410924B
:102D70004B041092480410924904D8011696CD9144
:102D8000DC919E013A9521153F4108F4D07ED1E0B7
:102D9000C11101C0D0E0D8011996ED91FC911A97AC
:102DA000309731F01B966D917C9180E00995D82386
:102DB000DD2339F08CEF8C0F813A30F58C2F0E9497
:102DC0004F0AFF2099F0E0914D04F0914E04808568
:102DD00084FD0CC080914A04882341F08081918158
:102DE0009C0121503109203B3D45A0F00E949B10E1
:102DF00010924E0410924D0410924A04C801CDB7AF
:102E0000DEB7E5E00C9441340E949B108C2F0E94A9
:102E10005316D7CF0E94EA04E9CFCF93DF93EC019A
:102E20000E945316CE010E94F10A9E01205E3109D4
:102E30002830310510F0CD2B29F40E944516DF9182
:102E4000CF9108950E943416FACFCF93C82F8823CC
:102E5000A9F08CEF8C0F813A98F4EAE3F1E080E47A
:102E600091E02191C21709F18E179F07D1F76C2FBE
:102E700088E391E00E94C3040E949B10CF910895C3
:102E800080E28C0F883048F4C77081E001C0880F61
:102E9000CA95EAF70E94280AEFCFC03F78F38C2F3B
:102EA0000E94C9070E948706E9CF8C2F0E944F0A13
:102EB0000E949B10DCCF1F93CF93DF93182FC091FC
:102EC0008C03D0918D03893321F0C0918A03D09176
:102ED0008B03812F0E942517209739F4812F0E94A0
:102EE0005316DF91CF911F9108958FE99FE00197CD
:102EF000F1F700C000002197EFCFB0E0A0E0E3E8D9
:102F0000F7E10C942034EC018AE0A82E28812223DA
:102F100009F48FC02130C9F599818A81913021F45B
:102F200022960E945B1705C0923029F422960E94D7
:102F300025172196EBCF933021F422960E94531649
:102F4000F8CF943011F02196F4CF229630E020E0B3
:102F5000AE014F5F5F4F8053990B8A30910550F05F
:102F60002150310930F38FE99FE00197F1F700C05C
:102F70000000F6CFA29EB001A39E700D11249C010B
:102F8000260F371F8981EA01E3CFE22FF0E0EC50F2
:102F9000FB4FB490822F86958695869590E0FC0134
:102FA000EC51FB4FE4902770F12C022E02C0F594F7
:102FB000E7940A94E2F731E0E322FF24FC01EC52AB
:102FC000FB4FC490D12C022E02C0D594C7940A9412
:102FD000E2F731E0C322DD24FC01EC53FB4F049106
:102FE00010E002C0159507952A95E2F701701127A8
:102FF000E114F10419F081EE0E942517C114D104E7
:1030000019F086EE0E9425178B2D0E945B17C114C4
:10301000D10419F086EE0E945316E114F10419F060
:1030200081EE0E9453160115110509F482CF8CE23E
:1030300078CFCDB7DEB7EAE00C943C34CF93DF9382
:10304000EC010E94F10A9E01205E31092830310511
:1030500010F0209741F40E944C168C2F0E942517E7
:10306000DF91CF9108950E943B16F7CF662329F098
:10307000209170042260209370049C013056211529
:1030800040E2340720F0305E2115304108F49927E2
:103090000E941E180895B0E0A0E0E1E5F8E10C946C
:1030A00023347C018B01D42E8091170182FF8CC0C8
:1030B000C0919203D0919303CE15DF0521F0E11466
:1030C000F10409F081C0809117018B7F8093170173
:1030D00081FD73C08091900390919103A801481BDA
:1030E000590B81E0209115013091160142175307C9
:1030F00008F480E08170F82E80911701F0FA81F9D0
:1031000080931701FE0183E0F695E7958A95E1F734
:10311000EE71FF27E45BFC4F20813181AE014F70DF
:10312000552781E090E002C0880F991F4A95E2F789
:10313000FF2009F444C0822B932B918380838091DC
:103140004B0381FF08C080911701806180931701B4
:1031500082E00E94210A80914B0385FF08C0809184
:10316000170180628093170180E20E94210A6F2D6F
:10317000CE010E943618DD2031F08091870385FF53
:1031800002C086FF3BC080918A0390918B030E940E
:10319000700B80919203909193039C0130562115FE
:1031A00040E2340720F0305E2115304108F49927C1
:1031B0000E940D170E9434111DC081E09BCF8095A5
:1031C000909582239323B9CFC70199279701305651
:1031D000211540E2340728F0305E2115304108F017
:1031E000C7010E940D1780919203909193038E1551
:1031F0009F0501F31093910300939003CDB7DEB7C1
:10320000E7E00C943F3468EE7EEF90E080E00E94AF
:10321000B73460E082E090E00E94993460E083E09F
:1032200090E00E9499341092A50160E084E090E063
:103230000E94993464E082E290E00E94993460E058
:1032400085E090E00E94993460E086E090E00E9482
:1032500099346FEF87E090E00E94993440E050E0AD
:10326000BA0188E090E00E94AB3460E08DE090E02D
:103270000E94993440E050E0BA0188E190E00E9459
:10328000AB3460E087E190E00E94993440E050E088
:10329000BA018CE190E00E94AB3470E060E080E223
:1032A00090E00E94B73440E050E0BA0188E190E03D
:1032B0000E94AB3480E00E94540D0E94951540E0BE
:1032C00050E0BA018FE090E00E94AB3440E050E063
:1032D000BA0183E190E00E94AB340895A7E0B0E02A
:1032E000E4E7F9E10C9418347C01DC0113964D916C
:1032F0005C91149711966C9111978C910E945B05CB
:103300008111EEC061E0C7010E949C0C8C01F701A5
:1033100082818823E1F080914F04909150040097BE
:10332000B1F00817190799F0FEE08F9FC001112432
:10333000FC01E350FE4F20812460208388509E4F83
:10334000DC010D931C930E940C1110927004F70184
:103350008281882311F40C942C22C80182519F454C
:10336000409710F00C9420228FEF93E00E94853458
:103370008111A6C07EEED72ED00E0BE611E0D11043
:1033800036C019821A821B821C8299249A94680181
:103390002FEFC21AD20AC8010E94853489831A828B
:1033A000882309F48DC0813009F07FC0580132E0D4
:1033B000A30EB11CC6010E948534C82E8A838823BF
:1033C00009F47EC0C5010E948534D82E8FEF8C0D84
:1033D0008330D8F4580143E0A40EB11CDB82DD2019
:1033E00021F0CE0101960E947D178501D0CF0115F5
:1033F000F4E01F0709F464C0C8010E9485348111FC
:1034000001C0DA940F5F1F4FBACF8BEF8C0D833062
:1034100030F5C8010396DB825C01DD2031F35801F1
:1034200054E0A50EB11C0E9485348C838823E9F2F8
:103430008B819C818130AFEF9A0710F0982F8827FD
:10344000B6E0CB1631F0E7E0CE1631F00E94C52988
:10345000CCCF0E949F29C9CF0E942629C6CFF4E075
:10346000CF12C3CF580124E0A20EB11CC8010396AD
:103470000E948534DD2021F1882311F18150990BC0
:10348000989E9001999E300D11244D2D4150550B61
:10349000CA01820F931F019708F4A7CFAFE9BFE0DD
:1034A0001197F1F700C00000F6CFCE0101960E94FF
:1034B0007D1756019ACF81E00E94B6110E946C11CF
:1034C00080919901877061F0D70112968C918823C1
:1034D00039F080914A0382FF03C082E00E94851187
:1034E0002796E2E10C94343481E00E947811E6CF13
:1034F00082E0FBCF823011F00C946A228091F201BD
:103500009091F301892B09F4E5C72EE02C9DC001B1
:103510002D9D900D1124FC01E350FE4F20812E7F44
:10352000208388509E4F0E940C11D4C781E0809365
:103530000001C6CF80910001882309F485C64801A7
:1035400020EE821A91084090A40180914301482AFC
:1035500080914B03482A38E08316910408F086C016
:1035600098012770332781E090E001C0880F2A95E9
:10357000EAF7552009F477C0482AD7018D919C912C
:103580000E94860A21E030E0F90102C0EE0FFF1F21
:103590008A95E2F7FF83EE8320904D0430904E042D
:1035A00060904001709041011D822D81E22FF0E07A
:1035B000EE0FFF1FE754FD4FC080D180C114D1042E
:1035C00009F4A6C6411005C0D60112968C9181114E
:1035D00089C0F601838190E02E813F81822393236D
:1035E000892B09F47FC08085982F977009F487E0B4
:1035F00038E08316910408F053C0552009F44CC0FC
:1036000086958170882309F46DC0D601AD90BC9079
:103610000A151B0519F4552009F464C0C214D3041B
:1036200009F460C0D6011D96ED91FC91309721F010
:103630008081882309F456C0642DC6010E943B0591
:10364000882309F44FC00A151B0509F0C1C70115ED
:10365000110509F4C2C75110C2C7A614B70409F076
:1036600041C0512CBCC78095482287CF552009F412
:1036700038C610934101009340010E94AB0460934F
:103680004404709345048093460490934704109239
:103690004C0410924B0471CF82FB882780F9B2CF83
:1036A000552001F18170AECF0E945316B6C7049722
:1036B000813A910558F46A2D88E391E00E94C30491
:1036C000552009F4C1C50E949B10FACE0E949B10A0
:1036D0008FE39CE90197F1F700C000008A2D0E945A
:1036E0002517EECF9D819F5F9D835FCFFC012081D9
:1036F00031810217130709F0A0C55110A0C510921F
:103700004A0480E00E94A7169FC5902F812FE4C530
:10371000F901858181FF10C6C9010E94F2100CC613
:103720008091170181608093170134C68091170141
:103730008E7F809317010E9434112CC6809117014F
:103740008F7E013E110531F0053E1105C9F48091CF
:1037500017018F7D809317018091170180FF29C683
:10376000D70112968C910832110528F50E311105FA
:1037700008F072C00430110580F5811116C619C613
:10378000C8019056811540E2940720F0905E8115A3
:10379000904110F78091170182FF0BC68091890339
:1037A00081FD07C623EB31E040E0B60190E080E008
:1037B0000E944B18FEC50933110558F40D3211054E
:1037C00018F40B321105C9F69091870392FDD5CFFD
:1037D00008C004361105C1F3D0CF9091870394FD42
:1037E000CCCF882309F4A8C08091A40190914B0309
:1037F000892B8D7FB1F110929303109292038091E7
:10380000870381FD2EC0F80143E0F695E7954A95C0
:10381000E1F7EE71FF27E45BFC4F98012F7033272F
:1038200081E090E002C0880F991F2A95E2F7809509
:10383000909520813181822393239183808360E05E
:10384000C8010E9436188091A4018D7F0E94060A4B
:1038500082E00E94851134CE9091870393FD8DCF35
:10386000C0CF88E0F701A3EBB1E001900D928A95FB
:10387000E1F71092B5011092B7011092B601809154
:1038800092039091930308171907D1F520918703AC
:1038900025FF36C03091170131FF02C026FF30C02E
:1038A00020919003309191035601A21AB30AB701F7
:1038B0000E948F0DA816B90618F580914B0381FF61
:1038C00008C08091170180618093170182E00E94F7
:1038D000210A80914B0385FF08C080911701806207
:1038E0008093170180E20E94210A6091170166957A
:1038F000617080919203909193030E943618E0CDFD
:103900008091A40190914B03982B2091170191FB7A
:1039100021F9209317018D7F0E94060A10939303CB
:1039200000939203D0929103C0929003809117016B
:103930008460809317018CCF970140E0B601C801E5
:103940000E944B18BDCD053A4DE5140709F445C555
:10395000C0F501368DE5180709F43FC506319CE531
:10396000190709F0D5C180914B03982F9A7A2091BD
:10397000860320FF04C0482F447409F090E021FF23
:1039800004C0482F417109F090E022FF04C0482F85
:10399000487809F090E023FF03C0827209F090E0BC
:1039A000332309F42FC181E0911101C080E080939D
:1039B000420169E2911165E388E391E00E94C3044A
:1039C00082CEC8018D5A9D45039740F606C5073043
:1039D0008CE5180709F4C6C080914903806108305E
:1039E0009CE5190780F18091490380642CC00D305B
:1039F000ACE51A0709F4C4C090F4809149038E7FA6
:103A00000B30ECE51E07F9F0809149038C600C3017
:103A1000FCE51F07C0F0809149038D7F14C00F3073
:103A20002CE5120709F4BCC008F4AEC000314CE527
:103A3000140709F4B9C0809149038F7B01315CE51B
:103A4000150709F0F4C480934903F1C40F3F8CE5D6
:103A5000180709F4B7C098F50A3FACE51A0709F44E
:103A600079C0C0F40431ECE51E0709F4B9C008F4CC
:103A7000A5C005312CE5120709F0D9C4809149038E
:103A800082FB992790F921E0922790FB82F990FB25
:103A900083F9D9CF0C3F3CE5130709F479C008F44A
:103AA0005DC00D3F5CE5150709F476C00E3F8CE55F
:103AB000180709F0BCC480914A0383603CC00136FA
:103AC0009DE5190709F497C090F40130BDE51B0787
:103AD00009F48FC008F47AC060E00230FDE51F07EA
:103AE00009F0A5C48EE090E00E949934A0C40D3A7C
:103AF0002DE51207E9F060F490914903892F8E7F3C
:103B000090FF8160053A4DE5140709F49CCF8FC4FE
:103B10000E3A5DE5150781F10F3A8DE5180709F0BA
:103B200086C490914A03892F877F93FF886003C0E2
:103B300080914A03886080934A0379C48091490345
:103B4000826081CF8091490384607DCF8091490359
:103B5000886079CF80914A038160EDCF80914A03DC
:103B60008260E9CF8091490380626DCF0E94DE11AF
:103B700080914903806867CF80914A03877FDBCFBC
:103B8000809149038B7F5FCF80914903877F5BCF13
:103B900080914A038E7FCFCF80914A038D7FCBCF18
:103BA000809149038F7E4FCF809149038F7D4BCF0A
:103BB0000E94DE11809149038F7745CF80914903A0
:103BC000837F41CF80914A038C7FB5CF80914A0398
:103BD000982F909591708E7F892B90FB81F9ABCFB8
:103BE0000E94DE1190914903892F97FB87F9805835
:103BF0002ACF61E077CF90914903892F8F7E94FF80
:103C0000806121CF80914201811104C089E20E942C
:103C10004F0A59CD85E3FBCF073C5CE5150709F456
:103C20006AC048E85FE06EE77FE0083C9CE5190762
:103C300008F454C041E75FE064E67FE04FC00D3C0C
:103C4000ACE51A0709F461C0B0F442E95FE064EA48
:103C50007FE00B3CECE51E0709F440C047E55FE060
:103C60006AE47FE00C3CFCE51F07C0F144EA5FE03A
:103C700062E97FE033C0063D2CE5120708F420CC52
:103C80000D35100709F41CCC68C48091E10180FF58
:103C900019C08E7F8093E1016091E1017091E20192
:103CA0008091E3019091E4010E947D0E4FEF50E777
:103CB00082E0415050408040E1F700C000000E9487
:103CC0007A0BFECB81608093E10161E086950E94D2
:103CD000B60FF6CB44ED5FE06EED7FE00E9472061A
:103CE000EFCB4EED5FE064ED7FE0F8CF4EE75FE0B5
:103CF00068E87FE0F3CF44E65FE061E77FE0EECF86
:103D00004AE45FE067E57FE0E9CF61E081E0DFCF93
:103D10000A359DE5190771F158F40115BCE51B073B
:103D200091F00E3D1C4509F018C40E94031909C00A
:103D30000C35FDE51F07A1F0F8F0073A1D4509F025
:103D40000CC40E941E160E94DE114FEF54E38CE05B
:103D5000415050408040E1F700C000000E948B04B9
:103D600080914A0382FB882780F991E089270E948D
:103D7000A111F3C381E0FBCF80E0F9CF8281008104
:103D80001181882369F0C8010E94200CD82E682F69
:103D9000C8010E94AE0AB8018D2D0E94030CE3C336
:103DA000C8010E94860AD82EF6CF202F2F70C22E6F
:103DB000802F807F19F0C29490EFC922BB20A9F018
:103DC000CC2059F080E2810F883010F0111107C02B
:103DD0008C2D0E94280A0E949B10812F5AC080912E
:103DE0007004C82AC0927004F6CF812F0E94531627
:103DF000CC2009F450C080E2810F883010F01111FE
:103E000004C08C2D0E94210A03C08C2D0E941A0A26
:103E10000E949B1040C0302F3F70C32E802F807FA8
:103E2000803219F0C29480EFC822112321F11130A1
:103E300009F4AEC0BB2009F4B7C0DD2009F47FC08F
:103E400020E0D7014C9111965C91119712966C91DC
:103E5000129713967C91139714968C910E94790C6B
:103E60008091890381FDB9CFF701858180FFB5CFAE
:103E70008F70858364C080914A0382FD40C0BB205F
:103E8000C1F1CC2029F08C2D0E94280A0E949B10A1
:103E900080E00E942517A92DA850BB0B149710F4A1
:103EA0000E94DD04812F902F0E94D60A8111A6C1A5
:103EB0001092450110924401AA20B1F0809199011D
:103EC00080FD12C0D70112961C9285958595859527
:103ED0000E94B611C7010E946E19809199018595C3
:103EE000859585950E94781160E0C7010E949C0C21
:103EF000F7CA80E00E945316CC2069F282CFBB2023
:103F000011F1D11004C08091A4018C2919C041E0A5
:103F1000D41206C08091A4018C290E94060ABBCF4E
:103F200080918803823078F3D812EDCF0E94FB098C
:103F3000909143018C2D892B8913809343018C2D03
:103F40000E944C16A8CFD11003C00E94FB0917C0D5
:103F50008091880351E0D51216C0823008F49BCFBF
:103F600080914B038C2109F496CF0E94FB0990911C
:103F700043018C2D809589238913809343018C2DD7
:103F80000E94451688CF823000F3D812DECF83CF4F
:103F900080918E03BB2021F08D1508F47CCFCFCF0C
:103FA000D81608F078CFEBCFDD2049F380918C0351
:103FB00090918D03193321F080918A0390918B03A6
:103FC0000E94700B812F0E94531665CF812FBB205A
:103FD00029F00E94C9070E9487065DCF0E94AE06A5
:103FE000FACF802F837091F5B11055CF412F4295B4
:103FF00046954770440F440F812F8F70042E01C0E7
:10400000880F0A94EAF7212F207114FF07C02FE0D0
:1040100030E001C0220F4A95EAF72095302F3695FF
:1040200036953370323069F050F44091A50131304B
:1040300029F0822B84230E94D9112DCF842B822B2F
:10404000FACF282B8091A5018227F5CF8695BB203A
:1040500011F0802F8170882309F41DCF412F4295E4
:1040600046954770440F440F812F8F70042E01C076
:10407000880F0A94EAF7212F207114FF07C02FE060
:1040800030E001C0220F4A95EAF72095302F36958F
:1040900036953370323069F050F440916F0431300E
:1040A00029F0822B84230E946711F5CE842B822B6A
:1040B000FACF282B80916F048227F5CFF02FFF7065
:1040C000CF2EBB2029F08F2F0E94B611812F38CF21
:1040D000812F0E9445168C2D0E947811DCCE123F54
:1040E00089F160F4103FB9F0113F81F0BB2009F471
:1040F00080C0D11072CE802F8F7128C0133F49F13C
:10410000143FA1F780914A0382FD2FC0802F8F7149
:10411000BB2011F31BC080918E03BB2079F0D81611
:1041200008F0B9CE202F2F7181E090E001C0880FF8
:104130002A95EAF790916F048927B5CF8D1508F479
:10414000AACEF0CF802F8F71B110C6CF0E94B611CA
:10415000A2CE80E0BB2009F4A6CF81E0902F9F7112
:1041600001C0880F9A95EAF79ECF8091880382302C
:1041700040F1BB20D1F0909199019770943041F4B7
:104180000E942E0A802F8F710E947811A12C83CE5D
:10419000D816E0F7202F2F71C22E822F0E94B61161
:1041A00063E08C2D0E94C211F1CFD81630F00E942E
:1041B0002E0A64E0802F8F71F5CF81E00E94851177
:1041C000E5CFBB2059F0302F3F71C32E832F0E94C3
:1041D000B61163E08C2D0E94C2115DCE81E00E9479
:1041E000851141E04D1508F056CE82E00E94851100
:1041F00052CED110DBCE802F8F716ECFBB2019F045
:10420000D11056CE59CED11053CE20E0F7014081C7
:1042100051816281738184810E94790C809189032C
:1042200083FF46CE8091440190914501029709F0A9
:104230003FCE812F0E945B173BCE552029F0DC0139
:1042400018968C9185FF5DCAC80197558F3F9105DF
:1042500011F008F071C05801BB24BEE00B9FF001C3
:1042600011249F0128503E4F6901D70112968C916D
:10427000E350FE4F908180FB90F99083882309F4EE
:1042800047CA0E94B7049093B2018093B101F6012E
:1042900082818F5F82838091700490914B03892B80
:1042A00083838091A40184830680F781E02D309779
:1042B00031F0D6011C966D917C91C60109958EE076
:1042C0008A9DF0018B9DF00D1124E850FE4F8581F1
:1042D00081FF1BCA90E080E090934F0480935004CC
:1042E0002BC080914001909141010817190781F47A
:1042F0001092410110924001109244041092450422
:10430000109246041092470410924C0410924B04F1
:1043100080914D0490914E04009709F495CFA8E048
:104320008A16910408F0E2C9642D0E943B058111B0
:1043300003C081E00E94A7168091870380FF39C0E7
:104340000E94B7046C01D70112968C91882309F45E
:10435000F5C98091170182FF08C023EB31E040E0EE
:10436000B60190E080E00E944B180B31BCE51B07C2
:1043700009F4D6C90C31ECE51E0709F4D7C99091B0
:104380001701892F8E7F90FF81600A31FCE51F079E
:1043900009F4CFC9C8019056811520E2920728F090
:1043A000905E8115904108F0D7C910929303109246
:1043B0009203F7013281332309F4ADC00330FDE5E8
:1043C0001F0708F0C0CA0A3F2CE5120730F4C801E5
:1043D00082509C45449708F0C1CA0E94C30C909338
:1043E0004A038093490302319CE5190709F4E0CBA5
:1043F00008F02CCB0930BCE51B0709F4B7CB08F05B
:10440000F6CA0530FCE51F0709F4A0CB08F0DFCAA7
:1044100003303CE5130709F491CB08F093CB80916E
:104420004903816002305CE5150709F40CCB8091EB
:10443000490390914A030E946D0D0E94DE1140C80D
:104440000031FFE51F0709F436C801312FE51207D7
:1044500009F040C082E030C800313FE5130709F49D
:1044600043C801314FE5140709F442C86801E7E584
:10447000DE1AFFEFCF16D10409F060F56EEE71E0A1
:104480008C2D0E947B0D892B29F58EE08C9DF001EF
:104490008D9DF00D1124E850FE4F8281813009F08E
:1044A00029C88091EE019091EF01892B99F08091BC
:1044B000F0019091F101892B69F08091F2019091C6
:1044C000F3012091F4013091F501822B932B892B7C
:1044D00009F41BC8D70112965C90552009F42AC82C
:1044E0000F35BDE51B0709F421C80036EDE51E07B1
:1044F00059F00E35FDE51F0709F01CC88091000139
:10450000882311F40C94961A1092000180E00E9406
:10451000A7160C94601A06315CE5150709F423CA46
:1045200080914B038272093CACE51A0709F4E8CB91
:1045300008F085CB053CECE51E0709F4D7CB08F065
:104540006BCB033C2CE5120709F4C4CB08F0C9CBB4
:10455000023C4CE5140709F498CBF701868197815A
:10456000009709F40BCC0E948D08182F092FF70132
:10457000B280D580D2943FE0D32280919901877098
:10458000C1F0AB2CBB20B1F0892F807F803421F0AB
:1045900080E2810F883068F080914A0382FF09C071
:1045A00082E00E948511809199018770AA24A394CA
:1045B0008111A12C902E92942FE09222FBE0F9150C
:1045C00008F469CCE92DF0E0EF51FB4C0C940B346E
:1045D000A114B10409F041C8512CB12CA12C80E0E8
:1045E0000E94A716D0924E04C0924D0481E08093A1
:1045F0004A04F60185818093480451100EC0AB280F
:1046000061F0F601808191819C0124503109213AA9
:10461000310508F049C80E944F0AD6011696AD90A0
:10462000BC90C5019A9581159F4110F4E0EEBE2221
:1046300077247394C5010197803B9D4508F0712C48
:10464000D6011996ED91FC911A97309731F01B968F
:104650006D917C9181E009957822772079F0F601BF
:10466000868197810E94F10A80934904C501F8E090
:104670008F16910408F01BC80E94EA040E949B1048
:104680001FC8B0E0A0E0E7E4F3E20C94223480918C
:104690005201807F31F480914F01C09196018111C8
:1046A00007C0CDB7DEB7E8E00C943E342196C77062
:1046B000809155018C17A9F3F0904D01E0904E01C7
:1046C000C0905001D0905101A6016E2D8F2D0E94F7
:1046D0005B05D0E08111EACF8E0183E0000F111F4E
:1046E0008A95E1F7F801EA5AFE4F81818E11DECFFB
:1046F00080818F11DBCF82818111D8CFE380F4805C
:10470000EC18FD0860E08DE491E00E949C0C6DE4E3
:1047100071E00E948F0DE816F90640F68091520173
:104720008F70806180935201F801E55AFE4F8081BD
:104730008F70806180838DE491E00E946E190E94E9
:104740007C0AAFCFA5E1B0E0E8EAF3E20C941B34B9
:104750008C0185E0F801DE01519601900D928A9559
:10476000E1F7D8015C9011966C9011971296EC903D
:1047700012971396CD90DC9060E08DE491E00E945A
:104780009C0C8DE4A82E81E0B82E80905001909072
:104790005101A40160914E0180914D010E945B0581
:1047A0008111A8C1F0904F01F601E819F9094F01F4
:1047B00060E0FF2009F44BC1C5010E949C0CB501CB
:1047C0000E948F0D709052018816990608F0F2C071
:1047D0004091500150915101B0904D01A0904E0177
:1047E000872D807F6A2D09F08CC08B2D0E945B0580
:1047F000FE2C811127C0D80111968C9111978A1136
:1048000021C08C918B111EC0209153013091540115
:1048100016968D919C9128173907A1F4E11012C0CA
:10482000872D8F708061809352018DE491E00E940A
:104830006E1980915201F80185838F2D6596EFE006
:104840000C943734A601662D852D0E945B05D82E69
:1048500081E08E25D11080E080FF18C04E2D662D9E
:10486000852D0E945C0A882389F08091890380FF4E
:104870000DC08DE491E00E946E1988E0EDE4F1E056
:10488000DF011D928A95E9F7F12CD7CF81E08E25C3
:10489000D11080E0B82FB170CB2E80FF29C04E2DF3
:1048A000662D852D0E945C0AD82E811121C0598A5F
:1048B0006A8A89899A890E944F0C292F22952F7024
:1048C000223050F0243078F49F7051F0F801958137
:1048D000907F31F4FD2CB1CF9F7011F08823D1F37C
:1048E000805E8830B8F3C8010E946E19DC2CF2CFCC
:1048F000EE2009F4A2CF8091520181608093520191
:10490000C3CF8B2D0E945B05811124C0D801119665
:104910008C9111978A111EC08C918B111BC0209114
:1049200053013091540116968D919C911797281739
:10493000390781F4E1100EC015967C92C8010E94DF
:104940006E1988E0F801ADE4B1E001900D928A950E
:10495000E1F773CFC8010E945C0C882339F1EE2087
:1049600029F1809152018032A0F020914D013091C7
:104970004E013A8729871B86DD86CC868E878091FB
:10498000530190915401988B8F87CE0109960E9414
:104990006E1988E0F801ADE4B1E001900D928A95BE
:1049A000E1F70E944123FF24F39447CFC8010E94FE
:1049B0006E19F9CF872D807F09F45BCF90904D0160
:1049C00080904E014091500150915101682D892DE8
:1049D0000E945B0581111CC0F8018181881118C0FB
:1049E0008081891115C02091530130915401868135
:1049F00097812817390761F4E1100AC07582C80150
:104A00000E946E1988E0D5011D928A95E9F715CFAD
:104A1000C8010E945C0C882349F2EE2039F2809193
:104A20005201803208F4B5CF20914D0130914E01F2
:104A30003A8329831B82DD82CC828E83809153014D
:104A40009091540198878F83CE010196A0CF8DE479
:104A500091E00E949C0C6DE471E00E948F0D88161D
:104A6000990680F6FE2CEE2009F4A0CFE0904D01CF
:104A7000D0904E0140915001509151016D2D8E2DDD
:104A80000E945B05811128C0F80181818D1124C02D
:104A900080818E1121C02091530130915401868173
:104AA000978128173907C1F48091890382FD49CF86
:104AB0009091520190FD45CF907F09F442CF8091B3
:104AC00052018583903F09F439CF982F907F905FF2
:104AD0008F70892B858332CFC8010E945C0C8111B5
:104AE00058CF80915201816080935201C8010E9489
:104AF0006E19A3CEEE2009F459CFC8010E945C0CB8
:104B0000F82E882309F452CF88E0F801ADE4B1E033
:104B100001900D928A95E1F780914D0190914E019F
:104B20000E944F0C0E94412388CEA0E1B0E0EBE947
:104B3000F5E20C94283429873A874B875C876D8788
:104B40007E878F87988BCE0109960E94A2238111C0
:104B50002FC088E0FE013996DE01119601900D927A
:104B60008A95E1F74C855D856A8589850E945B059C
:104B700081111EC0A0915501B0E0CD010196877052
:104B800099272091960128171906E1F093E0AA0FC2
:104B9000BB1F9A95E1F7AA5ABE4F98E0FE013196E5
:104BA00001900D929A95E1F7809355010E947C0A3D
:104BB0008091960190915501891312C06096E2E0B0
:104BC0000C9444340E94DE1110925501109296010B
:104BD00088E0EDE4F1E0DF011D928A95E9F7E8CF86
:104BE000B8E08B9FC00111248A5A9E4F0E94A223D5
:104BF000882321F38091960190E001968770992790
:104C000080939601D5CFEF92FF920F931F93CF938E
:104C1000DF9380919703882361F0C09196038CE025
:104C2000F82E80919703C81748F0109297031092BE
:104C30009603CDB7DEB7E6E00C944034EE24E3945F
:104C4000EC0EE09296030C2F10E0CF9DE0011124B2
:104C5000C856DC4F4B815C81698188810E945B056D
:104C600081111DC08E819F81892B21F488859985B2
:104C7000019651F4288139814A815B816C817D8163
:104C80008E819F810E949525F09EF001F19EF00D8E
:104C90001124E856FC4F1482138210927004CE2D1A
:104CA000C0CF10923B0410923A04109218018091E8
:104CB0003904809338040E9494050E9403260895C5
:104CC000B0E0A0E0E6E6F6E20C941934C0913804B6
:104CD00097E0892E01E010E02CE0322E3EEF932E7B
:104CE00044244394809139048C1309C00E94032604
:104CF0000E949405CDB7DEB7E1E10C943534D0E0E5
:104D0000FE01EE0FFF1FE05DFB4F80819181889EC9
:104D1000D001899EB00D1124A850BC4F14962C913F
:104D20001497211158C050909703E8E9F3E030E060
:104D300020E0712C5D01251508F04BC0E284F3845E
:104D4000D501CD90DC906FEF7FEF612C462D50E0C8
:104D5000DA01AA0FBB1FAC0DBD1D0D90BC91A02D9B
:104D6000109731F0EA16FB0609F4BA016394EECF0E
:104D70006F3F7607A9F1D80102C0AA0FBB1F6A9541
:104D8000E2F77A2AB801062C02C0660F771F0A9450
:104D9000E2F7AB014150510974161506F9F4329E41
:104DA000F001339EF00D1124E856FC4F889ED0018F
:104DB000899EB00D1124A850BC4F12962D913C91A4
:104DC00013973783268390829182918780871596E7
:104DD0004C920E9466052196C37084CF1482138280
:104DE0002F5F3F4F3C96A7CFA9E1B0E0EAEFF6E294
:104DF0000C941834942F498B252F5A8B6B8B7C8BFA
:104E00008D8B4C895D89622F892F0E945B058111F2
:104E100009C080914401909145010196909345010C
:104E2000809344018B898111109270041D861E8627
:104E30001F86188A85E0FE017196DE0119960190A1
:104E40000D928A95E1F780914A0382FF1EC08091FE
:104E50006E0390916F03892BC1F00E94B7042091DB
:104E6000970130919801821B930B20916E03309132
:104E70006F038217930720F08091990182FFE2C1AE
:104E80000E94350A81110E94FB094C855D856A8567
:104E900089850E945B05811111C061E0CE010996F0
:104EA0000E949C0C6C018B8527EFC2162CE5D20664
:104EB00081F4882321F181E08093180129853A85C6
:104EC0004B855C856D857E858F8598890E949525AB
:104ED000C6C038EFC3163CE5D30629F4882379F021
:104EE0000E945126EBCF49EFC4164CE5D40639F4A5
:104EF000882329F0809118018111F2CFDCCF08EFCF
:104F000013E0512CB12CA12C22242394312C2EEF10
:104F1000422EF8014081518188248A94982C20E007
:104F2000822F90E0FC01EE0FFF1FE40FF51F608160
:104F300071816115710531F0C616D70609F44C016F
:104F40002F5FEECFF12CFFEF8F169F0609F449C0BB
:104F5000F8014481F09018018F2D411180E0F82F65
:104F6000F170FF2EF801E58086819B85992309F475
:104F7000F8C0FF2009F4F5C06090820370908303AD
:104F8000E11013C0A101082C01C0440F0A94EAF7F4
:104F9000842B8683809194039091950386159705C1
:104FA00020F47092950360929403C10102C0880FAF
:104FB000991F2A95E2F70197F8012681281719060B
:104FC00081F480913A0490913B04009709F44BC01E
:104FD0000E949C046816790608F045C021E0F8019B
:104FE00024835F28FFEFAF1ABF0A095F1F4F28E035
:104FF000A216B10409F08DCF8B85882309F40DC169
:10500000552009F40AC10E94B70490933B04809391
:105010003A0480919703883010F591E0980F9093AF
:10502000970398E0FE013996DE01119601900D92EA
:105030009A95E1F73CE0839FC001112488569C4F6C
:1050400028E0FE013196DC0101900D922A95E1F7EE
:105050002FEF3FEFFC0131872087D386C286699608
:10506000E2E10C9434348091380450913904982F43
:10507000F0E0E0E0851314C090933804E017F107E6
:1050800009F4AFCF90E0FC01EE0FFF1FE05DFB4F96
:10509000B182A08201968370992780933904A1CFB1
:1050A000682E712CF301EE0FFF1FE05DFB4F208196
:1050B000318147E0429FD001439FB00D1124A85099
:1050C000BC4F6D917C911197798F688F40E020E003
:1050D00030E0E32FF0E0EE0FFF1F688D798DE60FD3
:1050E000F71F8080918081149104E1F0F801019014
:1050F000F081E02DFF8BEE8B20E005C08616970631
:1051000009F44F2D2F5FE22FF0E0EE0FFF1F6E89A5
:105110007F89E60FF71F608171816115710571F755
:105120003F5FD7CF4423D1F0F801231708F0FD01EA
:1051300021E024830E171F0721F490933804F42EE6
:1051400050CF981305C0AE17BF0711F49F5F93703F
:1051500093012F5F3F4F822F83708CCFF0E0E0E010
:10516000F7CF90E0E11020C0B10102C0660F771FB9
:105170002A95E2F79B01215031098217930731F4F8
:10518000442309F448C0C5010E946605C101082CEA
:1051900001C0880F0A94EAF7982F9095F80186814C
:1051A00089238683FE2C1DCF9C01082C02C03595D7
:1051B00027950A94E2F7A90141705527BC01615077
:1051C000710986239723892B11F5452B01F1F801ED
:1051D00082819381892BC1F01B821C821D821E82D9
:1051E00049824A820E94B7048160582F9D838C8334
:1051F000F801828193818F83988729813A814B813D
:105200006D817E810E949525F8011582BFCFF22F16
:10521000F170EF2EBBCFEF2CB9CF90913804809175
:105220003904981731F00E946026552009F446CEC3
:1052300016CF0E94032610923B0410923A040E945B
:105240009405F3CF82E00E9485111ACEA5E0B0E06C
:10525000ECE2F9E20C9428349093460380934503E2
:10526000811520E2920730F40E940D172596E2E0A6
:105270000C94443480EF89838A831B820E94B70494
:105280008160782F9D838C8349815A816B818D81C8
:105290000E94F426EBCF0F931F93CF93DF938C01E3
:1052A000EB016EEE71E08C2F0E947B0D892BA1F437
:1052B00080918A0390918B030E94700BDD27CA5165
:1052C000DE4F8881F801128218828330F1F048F4B1
:1052D000813059F0823081F0DF91CF911F910F9191
:1052E00008958430B9F08530B9F78091EE0190913E
:1052F000EF01009789F306C08091F0019091F101D0
:10530000009799F30E942629E7CF8091F2019091AE
:10531000F301F6CF8091F4019091F501009791F798
:105320002091EE013091EF018091F0019091F10117
:1053300021153105F1F2009729F7C901E3CFA5E066
:10534000B0E0E5EAF9E20C942834909346038093A8
:105350004503811520E2920730F40E941E1825961D
:10536000E2E00C94443480EF89838A8381E08B836C
:105370000E94B7048160782F9D838C8349815A8174
:105380006B818D810E94F426EACFCF93DF93EC01ED
:105390000E949F2980918A0390918B030E94700B39
:1053A000CE010E942629DF91CF9108950F931F937C
:1053B000CF93DF938C01862F6EEE71E00E947B0D00
:1053C000892BB1F4C091EE01D091EF01209781F0CB
:1053D000F8018281833051F4CE010E94C529CE01AB
:1053E0000E94C529CE010E94C52902C08430D0F791
:1053F000DF91CF911F910F9108950F931F93CF933A
:10540000DF938C01EB016EEE71E08C2F0E947B0D1F
:10541000892B09F05CC0FE01FF27D80112968C9100
:105420001297EA51FE4F8130B9F415969C9192FF84
:1054300002C080830AC090FFFCCF82E0808380910D
:10544000F0019091F1010097B9F48091EE019091F3
:10545000EF010097E1F110C08230B9F515968C91FB
:1054600082FD28C080FD0BC083E080838091F20123
:105470009091F301009701F10E949F2928C084E0D8
:1054800080838091F4019091F5010097A9F78091B4
:10549000EE019091EF010097F9F00E94C5298091EB
:1054A000F0019091F101009739F78091EE01909110
:1054B000EF01E2CF85E080838091EE019091EF01D2
:1054C000009729F00E94C529F0CF86E08083DF9104
:1054D000CF911F910F9108958091F0019091F1016A
:1054E000B8CF90E080E00E949334883E9E4F19F43C
:1054F0000E94AA0C089580E008951F920F920FB6A3
:105500000F9211242F933F934F935F936F937F9349
:105510008F939F93AF93BF93CF93DF93EF93FF93BB
:10552000D091E900DF708091EC00C82FC17080FD40
:10553000C0E81092E9008091F000877F8093F0002E
:1055400078940E94EA111092E9008091F00088603E
:105550008093F000CD2BCF70C093E900FF91EF91C5
:10556000DF91CF91BF91AF919F918F917F916F917B
:105570005F914F913F912F910F900FBE0F901F9011
:1055800018951F920F920FB60F9211242F933F93ED
:105590004F935F936F937F938F939F93AF93BF933B
:1055A000EF93FF938091E10082FF09C08091E200B8
:1055B00082FF05C08091E1008B7F8093E1008091A4
:1055C000DA0080FF24C08091D80080FF20C0809145
:1055D000DA008E7F8093DA008091D90080FF9DC031
:1055E00080E189BD82E189BD09B400FEFDCF81E083
:1055F00080936E0480915804811109C00E94D902E1
:105600000E94CC038091E20084608093E20080914C
:10561000E10080FF17C08091E20080FF13C08091FD
:10562000E2008E7F8093E2008091E20080618093AF
:10563000E2008091D80080628093D80019BC85E098
:1056400080936E048091E10084FF2BC08091E20082
:1056500084FF27C080E189BD82E189BD89B5982F8B
:10566000917080FFFBCF8091D8008F7D8093D80010
:105670008091E1008F7E8093E1008091E2008F7E37
:105680008093E2008091E20081608093E20080914B
:105690006504882309F447C084E080936E048091F8
:1056A0006E048091E10083FF27C08091E20083FFB8
:1056B00023C08091E100877F8093E10082E08093A6
:1056C0006E04109265048091E1008E7F8093E1006A
:1056D0008091E2008E7F8093E2008091E200806101
:1056E0008093E20042E060E080E00E949A038091B3
:1056F000F00088608093F000FF91EF91BF91AF912F
:105700009F918F917F916F915F914F913F912F91D9
:105710000F900FBE0F901F90189519BC10926E0439
:105720001092580474CF8091E30087FD93E090932A
:105730006E04B5CF78941F921FB61F9211248F93D9
:105740009F93AF93BF938091540490915504A0917F
:105750005604B09157040196A11DB11D80935404C5
:1057600090935504A0935604B0935704BF91AF9102
:105770009F918F911F901FBE1F9018951F921FB66B
:105780001F9211248F939F93AF93BF9380915304E3
:10579000811113C08091540490915504A091560436
:1057A000B09157044196A11DB11D8093540490936C
:1057B0005504A0935604B0935704BF91AF919F91A5
:1057C0008F911F901FBE1F901895CDB7DEB7C054A4
:1057D000D1090FB6F894DEBF0FBECDBF85B7806884
:1057E00085BF85B7806885BF84B7877F84BF0FB6C4
:1057F000F894A89580916000886180936000109271
:1058000060000FBE80E890E00FB6F89480936100CE
:10581000909361000FBE81E398E0909337018093ED
:1058200036010E944D060E94390E0E94AD0D0E9465
:10583000AF0B0E94D9020E94CC038091E2008460E9
:105840008093E200789480916E048823A1F01091F7
:10585000E9001F709091EC00892F817090FD80E825
:10586000182B1092E9008091E80083FD0E94EA1154
:105870001F701093E90082E084BD93E095BD9AEF1C
:1058800097BD80936E000E94AA0C811102C00E94F5
:10589000951584E90E94330886E60E94330884EF58
:1058A0000E94330885EF0E94330886EF0E94330878
:1058B0001092C1011092C0011092AA011092A90188
:1058C0000E94712A811102C00E94031982E090E0B7
:1058D0000E9485348093AE010E94C30C90934A03CA
:1058E000809349030E94F30F8FE39CE90197F1F73E
:1058F00000C000000E94F30F8091C00180FF08C02B
:105900006FEF7FEF90E080E00E94B7340E948B043D
:1059100083E090E00E9485340E94D9118091AB0110
:10592000811131C00E94712A811104C00E940319A3
:105930000E94E30F88E090E00E948D346093E101C3
:105940007093E2018093E3019093E4016E7F71F420
:105950000E94E30F88E090E00E948D346093E101A3
:105960007093E2018093E3019093E4010E94780632
:105970008091E10180FF04C060E086950E94B60F2F
:1059800081E08093AB0181E091E090935204809399
:105990005104E0E42E2E332433943E019BE2690E41
:1059A000711C80916E0410E102E1853009F4D0C1D0
:1059B0000E94F30F9091AF018091C0019813D2C162
:1059C0009091C1018091B0019813CCC10E94B7049D
:1059D0008C018091AC019091AD0108171907A1F0DD
:1059E0008FEF8BAB8CAB1DAA0E94B7048160782F20
:1059F0009FAB8EAB4BA95CA96DA98FA90E94F42621
:105A00001093AD010093AC0180914B0490914C0434
:105A1000892B09F43EC040914004509141046091AB
:105A20004204709143042FB7F894809154049091EC
:105A30005504A0915604B09157042FBF841B950BB9
:105A4000A60BB70B40913C0450913D0460913E047D
:105A500070913F0484179507A607B707D0F080918F
:105A60004B0490914C040E941E1810924C0410920A
:105A70004B04109240041092410410924204109280
:105A8000430410923C0410923D0410923E04109284
:105A90003F0400914F04109150040115110519F1B4
:105AA0008091B1019091B2010E949C047C0188E038
:105AB000D3011D928A95E9F7B301C8010E948F0DA9
:105AC0008E159F0580F480914F04BEE08B9FC0012E
:105AD0001124FC01E350FE4F208122FD04C08850B8
