:100000000C94DF010C9426020C9426020C94260218
:100010000C9426020C9426020C9426020C942602C0
:100020000C9426020C9426020C94D6200C94A82141
:100030000C94861C0C9426020C9426020C94260226
:100040000C9426020C9426020C9426020C94260290
:100050000C9426020C94DF1C0C9426020C942602AD
:100060000C9426020C9426020C9426020C94260270
:100070000C9426020C9426020C9426020C94260260
:100080000C9426020C9426020C9426020C94260250
:100090000C9426020C9426020C9426020C94260240
:1000A0000C9426020C9426020C9426026E126E12F8
:1000B000A012A0120314031403140314ED128213EC
:1000C00093139313F31303140314FC13971497144B
:1000D000A914A914A014A914A914A9149714971465
:1000E000A514A914A914A51415223C2234233C22DA
:1000F00034238822AB223423022311231E001F0045
:1001000020000400050006001E0F0500047F3F1FAD
:10011000643214643214783C1E1E140A052223250E
:100120002628292A2C2D2F3032333536383A3B3DBC
:100130003E4042434547494A4C4E5051535557590A
:100140005A5C5E6062646668696B6D6F7173757727
:10015000797B7D7F81838587898A8C8E9092949626
:10016000989A9C9E9FA1A3A5A7A8AAACAEAFB1B335
:10017000B4B6B8B9BBBCBEBFC1C2C3C5C6C7C9CA85
:10018000CBCCCDCED0D1D2D2D3D4D5D6D7D7D8D947
:10019000D9DADADBDBDBDCDCDCDCDCDDDDDDDDDCA5
:1001A000DCDCDCDCDBDBDBDADAD9D9D8D7D7D6D5B7
:1001B000D4D3D2D2D1D0CECDCCCBCAC9C7C6C5C379
:1001C000C2C1BFBEBCBBB9B8B6B4B3B1AFAEACAAC6
:1001D000A8A7A5A3A19F9E9C9A98969492908E8C76
:1001E0008A89878583817F7D7B79777573716F6D50
:1001F0006B6968666462605E5C5A5957555351502A
:100200004E4C4A4947454342403E3D3B3A383635DD
:100210003332302F2D2C2A292826252322FFAA7F8E
:100220005540000101010101010101010202020228
:100230000202020202030303030303030304040490
:100240000404040405050505050606060606070759
:1002500007070708080808090909090A0A0A0B0B11
:100260000B0C0C0C0D0D0D0E0E0E0F0F0F101011B0
:100270001111121213131414151516161717181836
:1002800019191A1A1B1B1C1D1D1E1E1F202021229E
:1002900022232424252626272829292A2B2C2D2DE4
:1002A0002E2F30313232333435363738393A3B3C01
:1002B0003D3E3F404142434445464748494A4C4DF4
:1002C0004E4F50515354555658595A5B5D5E5F61BD
:1002D0006264656668696B6C6D6F70727375777850
:1002E0007A7B7D7E8082838587888A8C8E8F9193AE
:1002F0009596989A9C9EA0A2A3A5A7A9ABADAFB1D5
:10030000B3B5B7BABCBEC0C2C4C6C9CBCDCFD1D4B9
:10031000D6D8DBDDDFE2E4E7E9EBEEF0F3F5F8FA5F
:10032000FDFF0E0368006900660075006D0069003E
:10033000000012037200690063006F006E006B0022
:1003400065006E0000000403090409022200010197
:1003500000A0FA09040000010301010009211101B4
:1003600000012240000705810308000A1201100164
:1003700000000008EDFE60300100010200010501EF
:100380000906A101050719E029E7150025019508CF
:10039000750181029501750881010507190029FF82
:1003A000150026FF0095067508810005081901292A
:1003B00005950575019102950175039101C0112400
:1003C0001FBECFEFDAE0DEBFCDBF04B603FE27C00D
:1003D0008091250290912602A0912702B0912802D7
:1003E0008730904BA740B04BD1F410922502109269
:1003F0002602109227021092280214BE84B7877F2B
:1004000084BF0FB6F894A8958091600088618093AE
:100410006000109260000FBEE0E0F8E3099511E083
:10042000A0E0B1E0EAEAF9E402C005900D92A4353B
:10043000B107D9F722E0A4E5B1E001C01D92A532D1
:10044000B207E1F70E94231E0C94D3240C94000001
:1004500081E0089581E008950C942A0208950C9497
:100460002E021F93CF93DF9300D000D01F92CDB701
:10047000DEB749835A836B833091980189819A81D1
:10048000311114C0662359F0222349F00E94D0197B
:10049000182F682F89819A810E94791903C00E94C0
:1004A000A419182F69817A81812F04C00E94D01964
:1004B00069817A810F900F900F900F900F90DF91CC
:1004C000CF911F910C94FB02FC01262F408151819A
:1004D0006281738184810C943102CF93DF93EC01AC
:1004E00060E00E946402BE01DF91CF910C942F0264
:1004F0000E94ED040C9427050C94230508950E9496
:1005000085140E947E022FEF84E39CE021508040FE
:100510009040E1F700C000000C94051D0F931F935D
:10052000CF93DF938C0161E00E946402EC01B8017B
:100530000E942C02882309F444C0B801CE010E9415
:100540009F0E8823F1F1B801CE010E94F10E88239D
:10055000C1F1B801CE010E941C10882391F1B801AD
:10056000CE010E94320D882361F1F8018281882337
:1005700009F1CB358DE5D807C1F050F4C115FCE584
:10058000DF0781F0CF3DDC45A9F40E94DB1B19C0D9
:10059000CC35EDE5DE0761F0CD35DD4559F40E943F
:1005A000631A08C00E947F020CC00E946C1A02C02D
:1005B0000E946F1AC801DF91CF911F910F910C9487
:1005C000280280E0DF91CF911F910F910895089547
:1005D0000C94E70281E008950C94EA02CF93C82FAF
:1005E0000E94E8028C2F0E94EC02CF91089580E0D7
:1005F00090E008950895272F30E0F901EE0FFF1FD6
:100600002E0F3F1FF90196E0899FE00DF11D112487
:10061000E60FF11DEE0FFF1FE450FF4F85919491FF
:100620000895880F991FFC01E85FFE4F8591949112
:100630000895CF93DF930E94FB020E941504EC0102
:10064000811521E59207A0F5811540E5940708F092
:1006500086C0C11580E2D807F0F4C11521E0D207A9
:1006600008F0DFC0C03ED10588F4C03CD10508F0D9
:1006700062C0C130D10509F4D4C008F4D0C0CE01A5
:100680000497813A910508F4CCC0C9C0C83ED10591
:1006900008F4C7C0C4C0C11540E4D40708F05CC06A
:1006A000C11580E3D80708F04DC0CE019F7046C049
:1006B000811525E59207A0F4811544E5940708F01B
:1006C00095C0C11583E5D80708F07AC0C11522E5A9
:1006D000D20708F05FC0DC2FCC27C16FD06AA1C061
:1006E000811549E59407A0F4C11588E5D80708F0FD
:1006F00082C0C11526E5D20708F091C08C2F0E9458
:10070000A9048F71C82FD0E0DC2FCC27D06289C01C
:1007100081154AE5940708F473C0905681159042FC
:1007200008F07DC08D2F8F710E94A904DD27D06253
:100730008F71D82B76C0CE01805C91090E94110385
:10074000EC016FC0CE019927D3FF03C0EC01D86C38
:1007500068C0EC01D06C65C0DF70D06A62C074E024
:10076000969587957A95E1F783709C2F937021E099
:1007700030E002C0220F331F9A95E2F73C68382B15
:10078000CF70C695C69540E2C49FE0011124C22BEC
:10079000D32B47C0CE018370992721E030E002C0FF
:1007A000220F331F8A95E2F78C2F8695869540E2BB
:1007B000849FC0011124E901C82BD92BDC6831C00A
:1007C000CE018370992721E030E002C0220F331F51
:1007D0008A95E2F78C2F8695869540E2849FC0012A
:1007E0001124E901C82BD92BDA681BC0D82FCC27DC
:1007F000C46FD06A16C0DC2FCC27C06FD06A11C07E
:100800008F700E94A90494E0D695C7959A95E1F758
:10081000CF70D0E0DC2FCC27D069C82B02C0C0E05D
:10082000D0E0CE01DF91CF9108958238910569F132
:10083000B0F48133910509F46DC048F48932910513
:1008400009F463C08A32910509F469C008958533BB
:10085000910509F455C089339105B9F00895833E97
:10086000910569F138F4803E9105B1F0823E910521
:1008700009F10895863E9105A9F1873E9105B9F1E8
:10088000843E910509F064C023C02091F70120FD4A
:100890004FC021FD4DC008958091F70180FD44C0F7
:1008A0008091F80180FF44C08091F70184FD42C02F
:1008B00083EE4DC08091F70182FF38C0F5CF809163
:1008C000F70182FD33C08091F80180FD31C0ECCF8B
:1008D0008091F80181FF32C08091F70184FD2AC028
:1008E00087EE35C08091F70183FF26C0F5CF809158
:1008F000F70183FD21C08091F80181FD1FC0ECCF7D
:100900008091F70185FD1CC01DC08091F70185FD18
:1009100019C016C08091F70186FD16C017C08091DE
:10092000F70186FD13C010C089E311C082EE0FC02D
:1009300080EE0DC080E00BC086EE09C084EE07C0DB
:1009400089E205C085E303C08AE201C081E390E04B
:1009500008959091F70192FF0DC0282F287128303B
:1009600019F4877F846006C0282F2471243011F485
:100970008B7F886093FF0DC0282F2871283119F4D0
:10098000877E846106C0282F2471243111F48B7E68
:1009900088612091F80120FF0DC0382F3871383060
:1009A00019F4877F816006C0382F3171313011F41E
:1009B0008E7F886021FF0DC0282F2871283119F4FF
:1009C000877E816106C0282F2171213111F48E7E2E
:1009D000886194FD877E089508950E94331B8111DC
:1009E00002C00E94DB1B0E943E1B8093EB010E9411
:1009F000461B9093F8018093F7010E94EC040E943B
:100A0000421B682F70E080E090E00E947B186091AC
:100A1000D6017091D7018091D8019091D9010C94A1
:100A2000B318E82FF0E0E550FE4F80810895089557
:100A300080EA8A95F1F7089500C008950C9418058E
:100A400008950C9420050C9421050C9420050C9419
:100A50002505F894E82FE295EF70F0E031A1282FFA
:100A60002F7081E090E001C0880F2A95EAF7982F57
:100A70009095932391A392A1892B82A378940895B2
:100A800084E90E94290586E60E94290584EF0E94D8
:100A9000290585EF0E94290586EF0E942905A9EF07
:100AA000B1E01C92EBEFF1E0108211961C921182E2
:100AB00082E00E94E2050C9478028F929F92AF929E
:100AC000BF92CF92DF92EF92FF920F931F93CF933B
:100AD000DF9387E2A82E81E0B82EC9EFD1E099E23A
:100AE000E92E91E0F92E912C01E010E06501F5016D
:100AF0008081F894E82FE295EF70F0E021A18F70EB
:100B0000A80102C0440F551F8A95E2F7CA01922F2F
:100B1000982B91A392A18095892382A378940E9417
:100B20001C05E4E2F1E020E030E0812C4191A42FAB
:100B3000A295AF70B0E090968C9190E04F7002C09B
:100B4000959587954A95E2F780FD07C0802F022E84
:100B500001C0880F0A94EAF701C080E0882A2F5F5D
:100B60003F4F2330310511F75FEFA51AB50AF601A3
:100B700080810E9429050E941E058881881619F02F
:100B8000888281E001C080E0982A2196EA14FB0463
:100B900009F0ACCF292D42E06BEF71E089EF91E0D5
:100BA0000E94E3050E947C02892DDF91CF911F9165
:100BB0000F91FF90EF90DF90CF90BF90AF909F90FC
:100BC0008F9008950895FF920F931F93CF93DF9313
:100BD0008C01F62ED72FC42F222349F081E0809379
:100BE00058010E94B81C9093570180935601809140
:100BF00058018823C1F080915601909157010E94BD
:100C0000D01C069780F0EF2DFD2FD8014C2F50E01F
:100C1000CD01801B910B841795071CF48D91819356
:100C2000F7CF10925801DF91CF911F910F91FF9054
:100C30000895EF92FF920F931F93CF93DF938B0151
:100C4000682F11110AC0442329F0E82FF0E0EE5D6F
:100C5000FD4F6491762F862F75C0212F30E0E82F4D
:100C6000F0E0442321F0EE5DFD4FE491F0E046E03A
:100C7000049FC0011124CFEFD0E0BE010E94822367
:100C80004BEA4603C001479F900D1124800F911D30
:100C9000800F911D982F990F890FAE01421B530BA6
:100CA0004E9FD0014F9FB00D5E9FB00D11249B2F22
:100CB000189FA0011124452F55278E01041B150BE9
:100CC0000E9FA0010F9F500D1E9F500D11247E01FD
:100CD000E81AF108E29E8001E39E100DF29E100DCD
:100CE0001124212F3327C21BD30BCE9F9001CF9FFE
:100CF000300DDE9F300D112462307105A9F048F4EB
:100D00006115710569F061307105C9F48B2F752F7C
:100D10000DC06430710581F058F06630710579F4CA
:100D20007E2F8B2F932F0DC0832F7B2F9E2F09C0DB
:100D30008E2F7B2F952F05C08E2F732F02C07E2FF5
:100D4000852F692FDF91CF911F910F91FF90EF9029
:100D5000089541E00E941906089508950E94A90689
:100D60000895CF93DF93762FE901682F842F0E9497
:100D7000AE06798368838A83DF91CF91089580914D
:100D8000FD01282F269530E02115310519F48170D9
:100D9000826005C02B32310524F081708465809318
:100DA000FD01089588E090E00C947424CF92DF92C6
:100DB000EF92FF926B017C010E94BF06B701A60172
:100DC00088E090E0FF90EF90DF90CF900C94922419
:100DD000EDEFF1E083E0808311828FEF82838383E4
:100DE000148260817181828193810C94D6068091F6
:100DF000FD0180FF02C08695089580E008959091DE
:100E00000102933018F49F5F90930102882351F000
:100E10006091FD017091FE018091FF0190910002AF
:100E20000C94D606089581E00C94FF06909101027F
:100E3000992319F0915090930102882351F0609109
:100E4000FD017091FE018091FF01909100020C94D0
:100E5000D606089581E00C94160770E00C94010EFC
:100E6000609108018091FD0180FF0AC08091070117
:100E700023E0829FC00111248E5F9D4F0C942D07AB
:100E80008091090190910A01891780F7E82FF0E01D
:100E90009F01220F331FE20FF31FEE5FFD4F118200
:100EA000108212828F5FF0CF9091FD0190FF16C0EB
:100EB0009091090120910A01921770F4E92FF0E056
:100EC000DF01AA0FBB1FEA0FFB1FEE5FFD4F8183FF
:100ED000608342839F5FF0CF0C9430070895CF93D7
:100EE000DF9300D01F92CDB7DEB79091FD0190FF48
:100EF0000AC09E012F5F3F4F0E94B1064B8169815E
:100F00008A810E9454070F900F900F90DF91CF912C
:100F10000895CF93DF93EC01EC81F0E0E35EFE4FA8
:100F20004491EDEFF1E0628181810E946F078C8135
:100F30008F5F8C83DF91CF910895CF93DF93EC0186
:100F4000EDEFF1E0438162818C810E946F078C811B
:100F50008F5F8C83DF91CF9108950F931F93CF9371
:100F6000DF9300D01F92CDB7DEB78C01809159017D
:100F700081110AC09E012F5F3F4F4FEF6FEF0E941C
:100F8000B1068A8180935901F8018481813051F042
:100F900028F0823061F4409159010AC080915901D2
:100FA00040E007C06091590140E080E003C040E0AC
:100FB00080E060E00E945407F801848190E001968F
:100FC00063E070E00E94962384830F900F900F904F
:100FD000DF91CF911F910F910895AF92BF92CF9261
:100FE000DF92EF92FF920F931F93CF93DF9300D086
:100FF0001F92CDB7DEB7182FF62E042FE22E909158
:10100000FD0190FF6DC0E92FE695AE2FB0E0A75D22
:10101000BE4F8C91809381019E7F923061F49E013E
:101020002F5F3F4F812F0E94B1064B8169818A81DA
:101030000E94540743C0823019F4009100023EC060
:10104000863019F41091FE0139C08930D9F3893105
:10105000A9F5E9518E2F8170D82EE695F0E0E35E78
:10106000FD4FA590B490C12CBB2460910B01C61616
:1010700018F52C2D30E0A29EC001A39E900DB29ECB
:10108000900D112470E00E948223812FD11002C0A4
:10109000860F01C0861B90910901290F311DA901FE
:1010A000440F551F240F351F2E5F3D4F402F6F2DCE
:1010B0000E94B106C394D9CF0E9430071093FE015D
:1010C000F092FF0100930002EE2051F06091FD01CB
:1010D0007091FE018091FF01909100020E94D6065E
:1010E0000F900F900F90DF91CF911F910F91FF9074
:1010F000EF90DF90CF90BF90AF900895EDEFF1E0CB
:101100009181282F4381628185E0890F0C94ED073E
:1011100081E00C947E08EDEFF1E09181282F43816E
:1011200062818BEF890F0C94ED0781E00C948B08A2
:10113000EDEFF1E0628121E1620F08F46FEF282FFB
:10114000438181810C94ED0781E00C949808EDEFC8
:10115000F1E0628121E1621B08F460E0282F438105
:1011600081810C94ED0781E00C94A708EDEFF1E08C
:10117000438121E1420F08F44FEF282F62818181E2
:101180000C94ED0781E00C94B608EDEFF1E043819B
:1011900021E1421B08F440E0282F628181810C94F8
:1011A000ED0781E00C94C50820E00C94ED07FF9258
:1011B0000F931F93CF93DF93EC01F12C0FEF10E00F
:1011C00060910B01F616F0F4809109012F2D30E0AB
:1011D000280F311DC901880F991F280F391F2E5F55
:1011E0003D4F70E0C8010E949623962F8C8140915C
:1011F00000026091FF01F99E800D11240E94B1064A
:10120000F394DECF0E9430079A818C8190FF02C058
:101210008F5F01C081508C83DF91CF911F910F911F
:10122000FF900895AF92BF92CF92DF92EF92FF921C
:101230000F931F93CF93DF93FC01828180FF02C045
:101240000FEF01C001E010E046E0A42E80910B01F9
:10125000181708F043C080910901C12ED12CE60176
:10126000C80FD11DCE01880F991FC80FD91FCE5F9F
:10127000DD4F198218821A8234E0E32EF12CB12C52
:1012800080915B018B0D87302CF06A2D0E947423B6
:10129000892F05C087FF03C090910B01890F082E8D
:1012A000000C990BC816D90691F4809100028E9D0E
:1012B000A0018F9D500D1124559547955595479543
:1012C0009E016091FF018091FE010E94B106B00E67
:1012D000F1E0EF1AF108A1F61F5FB8CF0E943007C6
:1012E00080915B01013031F4811102C080910B01CA
:1012F000815007C090E0019660910B0170E00E9460
:10130000962380935B01DF91CF911F910F91FF9006
:10131000EF90DF90CF90BF90AF900895CF938091E2
:10132000090190910A01891770F4E82FF0E09F01FC
:10133000220F331FE20FF31FEE5FFD4F1182108269
:1013400012828F5FF0CFC0E060910B01C617C0F52D
:10135000EC2FF0E070E0CF010E949623209109016C
:10136000820F20915A01022E000C330B90E0E217FD
:10137000F307CCF020910601022E000C330B2E1740
:101380003F078CF09C01220F331F820F931F9C019B
:101390002E5F3D4F409100026091FF018091FE0160
:1013A0000E94B1060BC0FC01EE0FFF1F8E0F9F1FA6
:1013B000FC01EE5FFD4F118210821282CF5FC4CF1D
:1013C0000E9430072091050180915A01820F80937D
:1013D0005A0190910601920F9093060119165CF440
:1013E000082E000C990B40910B0150E0415051091F
:1013F000841795071CF0219520930501CF9108953E
:101400008F929F92AF92BF92CF92DF92EF92FF9214
:101410000F931F93CF93DF938C01FC014481C42F62
:10142000D0E09E01DE010E94DA239B01AC010E9404
:10143000F0236B017C01E0E2F0E0EC1BFD0BA5E585
:10144000B0E09B01AC010E94F0234B015C019F01C5
:10145000DF010E94D2239B01AC010E94FB239B0170
:10146000AC012C0D3D1D4E1D5F1DC501B4010E9438
:10147000AA23C22FD22F2A3228F4F3E02F9F900103
:1014800011240DC025E530E02C1B3109C901880F5E
:10149000991F280F391F37FF02C02F5F3F4F359527
:1014A0002795C22FC095F12C85E5E82EED1A809185
:1014B0000B01F816C8F4F1FC02C08E2D01C08D2F6F
:1014C000909109012F2D30E0290F311DA901440F02
:1014D000551F240F351F2E5F3D4F4C2F6091FF018C
:1014E0000E94B106F394E3CF0E943007F801848193
:1014F000811102C091E003C0803219F49FEF9093F4
:10150000040190910401890FF8018483DF91CF9148
:101510001F910F91FF90EF90DF90CF90BF90AF9011
:101520009F908F9008950F931F93CF93DF93EC01BB
:1015300000E010E080910B01282F30E00217130724
:1015400024F5909109019801290F311DA901440F3B
:10155000551F240F351F2E5F3D4F869590E04C811F
:10156000081719071CF4442331F002C0411103C0CD
:101570004091000201C040E06091FF018091FE01B6
:101580000E94B1060F5F1F4FD5CF0E9430078C819C
:1015900090E00196817099278C83DF91CF911F9104
:1015A0000F9108957F928F929F92AF92BF92CF92A8
:1015B000DF92EF92FF920F931F93CF93DF93FC0183
:1015C0008280748081E08483EDE1F1E09490ECE925
:1015D000F1E0E491A12CF5E0BF2ECC24CA94D12CEB
:1015E000E9190E2F10E080910B01A81608F0A2C097
:1015F000EA2CF12C22E0281568F0BE9CF001BF9C7B
:10160000F00D1124E45AFE4F8091FE0180838091F9
:10161000FF01818371100AC0BE9CF001BF9CF00DD8
:101620001124E45AFE4F138212826AC0BE9CE0016C
:10163000BF9CD00D1124C45ADE4F8B818823F9F052
:1016400081508B832FEF829FC00111246C8170E049
:101650000E948223FB01FF27E35EFE4F8491E82F67
:10166000E9192FEFE29FC0011124B8010E948223E3
:1016700080910002689FB00111247A8341C00E94CA
:101680004F24209100022695215830E0A901440FF3
:10169000551F322F2227240F351F232F3327821760
:1016A000930774F582E0881588F40E944F24B601F0
:1016B0000E94962388830E944F242091FF01269543
:1016C000622F70E00E949623280F2983BE9CF001B0
:1016D000BF9CF00D1124E45AFE4F1282809100024B
:1016E000843120F0893C18F088EC01C084E1BE9C74
:1016F000F001BF9CF00D1124E45AFE4F84838383D4
:10170000809109019701280F311DC901880F991F88
:10171000280F391F2E5F3D4FBE9CF001BF9CF00D7E
:101720001124E45AFE4F4281618180810E94B106FA
:10173000A39459CFDF91CF911F910F91FF90EF901C
:10174000DF90CF90BF90AF909F908F907F900C9440
:101750003007EDEFF1E080818E7F808360817181C1
:10176000828193810E94D606109282012FEF80E73A
:1017700092E0215080409040E1F700C000000C94BE
:1017800030076091FD01669570E04BE050E08CE021
:1017900091E00E945F24892B19F481E080938201FB
:1017A0000E94B81C90937B0180937A0108959091D8
:1017B000FD0190FF35C09170811102C0926006C09A
:1017C0008B3210F0946502C0880F982B9093FD0126
:1017D000662351F06091FD017091FE018091FF013F
:1017E000909100020E94D6066091FD01669570E01E
:1017F0004BE050E08CE091E00E945F24892B19F0CF
:101800001092820102C00E94C10B81E080937D0191
:10181000409100026091FF018091FE010C94D40878
:101820000895682F9091FD01969581E0890F8B3284
:1018300008F081E00C94D70B81E00C94110C682F18
:101840009091FD0196958FEF890F09F48AE20C942F
:10185000D70B81E00C941F0C61E00C94D70BEDEFDB
:10186000F1E080818160808386950C942C0C8091BE
:10187000FD0180FD0C94A90B0C942F0C60E00C94DE
:10188000D70B8091800181112EC00E94331B8111E2
:1018900004C00E94DB1B0E94E8060E94D2066093EF
:1018A000FD017093FE018093FF01909300026E7F13
:1018B00061F40E94E8060E94D2066093FD017093D5
:1018C000FE018093FF01909300020E94BF061092D8
:1018D00082018091FD0180FF03C086950E943E0C2D
:1018E00081E08093800108950F931F93CF93DF933E
:1018F00080918201882309F495C080918101E09153
:10190000FD01E695E81BE0937C01823049F4F0E0AC
:10191000E75EFE4FE491CE2FD0E009E817E059C012
:10192000863049F4F0E0EA5EFE4FE491CE2FD0E03D
:101930000DE917E04EC0893051F4E695F0E0ED5E18
:10194000FE4FE491CE2FD0E007ED18E042C08F307B
:1019500051F4E695F0E0E05FFE4FE491CE2FD0E049
:1019600002E119E036C0853149F4F0E0E35FFE4F53
:10197000E491CE2FD0E00EE819E02BC08831D9F0E9
:10198000833239F4EBE0F1E0C591D4910DEA17E030
:1019900020C08432A9F08532C1F48E2F63E00E940A
:1019A0006823E92FF0E0E85FFE4FE491CE2FD0E00E
:1019B00002ED1AE00EC0C8E2D0E000E01AE009C073
:1019C000C4EFD1E003E91AE004C0C0EDD7E00DEAAE
:1019D00016E080917D01882361F010927D010E94C4
:1019E000B81C90937B0180937A0110927F01109232
:1019F0007E010E94B81CE0917A01F0917B018E1B60
:101A00009F0B8F3F9F4770F4EC0FFD1FF0937B01FE
:101A1000E0937A018AE791E0F801DF91CF911F917D
:101A20000F910994DF91CF911F910F910895882311
:101A300011F0FA0101C0FB010994CF93DF93C82F85
:101A4000D62F0E94F7068C1740F00E94F7068D17DC
:101A500020F4DF91CF910C941C0C8C2FDF91CF914F
:101A60000C942C0C1F93CF93DF93FB011281112355
:101A700009F4C1C0EC010E94721A8272CD3CFCE5EF
:101A8000DF0709F49BC008F043C0C73CECE5DE0764
:101A900009F480C0D8F4C43C9CE5D90709F46DC0B2
:101AA00038F4C33CDC4509F0A7C00E94370C6BC07A
:101AB000C53C9CE5D90709F468C0C63CDC4509F083
:101AC0009BC045E958E068E878E05BC0CA3CFCE5AB
:101AD000DF0709F469C070F4C83CECE5DE0709F4DF
:101AE0005EC0C93CDC4509F087C044EA58E063EBBE
:101AF00078E047C0CB3C9CE5D90709F45AC0CC3C00
:101B0000DC4509F079C04AE257E063E177E039C08B
:101B1000C23DFCE5DF0709F45EC098F4CF3C9CE5CC
:101B2000D90709F452C008F44EC0C03DFCE5DF07F8
:101B300009F44EC0C13DDC4509F05EC06EE089E0AD
:101B400057C0C53D9CE5D90709F44BC058F4C33DC7
:101B5000FCE5DF0709F442C0C43DDC4509F04CC098
:101B600088E143C0C63D9CE5D907F1F1CE35DD459E
:101B700009F042C06AE285E23BC049E25CE06CE108
:101B80007CE00E94170D10E037C04CE15CE069E298
:101B90007CE0F7CF48E858E065E978E0F2CF43EB26
:101BA00058E064EA78E0EDCF41ED58E062EC78E08F
:101BB000E8CF42EC58E061ED78E0E3CF43E157E055
:101BC0006AE277E0DECF81E010C065E082E010C01D
:101BD00068E086E00DC064E18FE00AC067E185E15E
:101BE00007C062E289E104C083E20E942C0CCBCFE3
:101BF0000E941D0DC8CF11E0812FDF91CF911F9161
:101C00000895539A2BB1277F3BB138604FB7F894B2
:101C1000FC01CB01880F991F680F791F6E0F7F1F82
:101C2000E617F70789F0819198E03BB9000000C002
:101C300087FF2BB9880F000000C000C000C02BB97F
:101C400000C09A9591F7ECCF4FBF8FE594E00197D4
:101C5000F1F700C0000008950F931F93CF93DF9317
:101C6000C42FD22FFC0182818823C9F040938501C3
:101C70000E94B81C909384018093830180E28C0FB2
:101C8000883008F057C0C77081E001C0880FCA953E
:101C9000EAF7DF91CF911F910F910C942D12809153
:101CA0008501481330C080918301909184010E9486
:101CB000D01C883C910538F510E21D0FCD17B9F006
:101CC00080E28C0F883040F4C77081E001C0880F3B
:101CD000CA95EAF70E943412183028F581E09D2F4A
:101CE000977001C0880F9A95EAF70E942D12802FF5
:101CF0000E9424121830F0F4D77081E001C0880FE0
:101D0000DA95EAF70AC080E28C0F883098F4C77041
:101D100081E001C0880FCA95EAF7DF91CF911F914A
:101D20000F910C943412802FDF91CF911F910F915E
:101D30000C942412DF91CF911F910F9108950F936E
:101D40009C01CB01243F4CE5340731F188F4293D57
:101D5000FCE53F07D9F02A3D4CE5340779F1283DF1
:101D60003C45A9F506E221EE41EE68ED7CE52BC08D
:101D7000263FFCE53F07E1F0A8F0273F3C4539F559
:101D800007E225EE46EE67EF7CE51DC007E225EE93
:101D900045EE69ED7CE517C006E221EE40EE64EF0A
:101DA0007CE511C007E225EE44EE65EF7CE50BC053
:101DB00006E221EE42EE66EF7CE505C008E221E096
:101DC00045EE6AED7CE50E942C0E80E008C0FC0127
:101DD0008281882319F01092850101C081E00F9162
:101DE0000895CF93DF93EC01FB018281882309F4EE
:101DF0001FC1C230FCE5DF0708F41BC1C6319CE5FA
:101E0000D90738F09E012B5F3C452930310508F099
:101E100010C10E94461B9093F8018093F701C031D6
:101E2000ECE5DE0709F4C3C008F041C0C8308CE51A
:101E3000D80709F49AC0F0F4C430ECE5DE0709F4E1
:101E400087C068F4C2308CE5D80709F477C0C33086
:101E5000DC4509F0E3C08091F701826076C0C630AE
:101E6000ECE5DE0709F46EC008F07BC08091F70155
:101E700088606BC0CC308CE5D80709F485C068F465
:101E8000CA30ECE5DE0709F474C008F079C00E949E
:101E900085148091F701806858C0CE308CE5D80752
:101EA00009F476C008F07FC08091F7018BC0CC3F69
:101EB000ECE5DE0709F44FC018F5C3318CE5D8070F
:101EC00009F47DC078F4C131ECE5DE0709F473C094
:101ED000C231DC4509F0A2C00E9485148091F7014F
:101EE0008F7733C0C5318CE5D80709F472C008F488
:101EF00086C0CB3FDC4509F091C08091F8013EC01F
:101F0000C115FDE5DF0709F45FC058F4CE3F9CE53D
:101F1000D90709F444C008F43FC08091F8018260F9
:101F20002DC0C230FDE5DF0709F475C008F45DC0BF
:101F3000C330DD4509F072C080E06EC08091F701CA
:101F4000816003C08091F70180618093F70166C0D2
:101F50008091F70111C08091F80182608093F801AF
:101F60005DC08091F7018062F0CF8091F7018064BD
:101F7000ECCF8091F70188608460E7CF8160EECF7D
:101F80008091F7018E7FE1CF8091F7018D7FDDCFCA
:101F90008091F701877FD9CF8091F80118C0809197
:101FA000F8018D7FDBCF8091F7018F7ECECF8091BE
:101FB000F7018F7DCACF8091F7018F7BC6CF8091CB
:101FC000F701877F8B7FC1CF8091F8018D7F8E7F56
:101FD000C5CF8091F70182FB222720F991E092275B
:101FE00090FB82F990FB83F9B0CF8091F801982F94
:101FF000909591708E7F892B90FB81F9AFCF0E94D5
:1020000085148091F70187FB222720F991E0922720
:1020100090FB87F99ACF81E00E94DD1B8091F70148
:102020009091F8010E94571B0E94851480E001C026
:1020300081E0DF91CF910895CF93DF9386319C4566
:1020400041F5EB010E94721A982F8A8120911701A5
:1020500030911801882379F09A7A81E009F480E0C0
:1020600080938601911102C069E201C065E3C90154
:102070000E94241C0AC080918601811102C069E27D
:1020800001C065E3C9010E94261C0E94C41A80E0B9
:1020900001C081E0DF91CF91089590938C018093EE
:1020A0008B010895E0918B01F0918C01309721F024
:1020B0000190F081E02D099480E00895E0918B017A
:1020C000F0918C01309721F00280F381E02D09948A
:1020D00008952091890130918A012817390771F0FC
:1020E00090938A0180938901E0918B01F0918C019A
:1020F000309721F00680F781E02D09940895209112
:102100008701309188012817390771F09093880171
:1021100080938701E0918B01F0918C01309721F041
:102120000084F185E02D099408950E94C41C6093F9
:102130009401709395018093960190939701609319
:10214000900170939101809392019093930108956F
:1021500085B7806885BF85B7806885BF089581E0B1
:1021600008950C94AF1008950C94B3100C94B31010
:102170000C94B6100C94B3100C94BA100C94B310C9
:102180000E94A81081E39BE10E94161D0E94BE10D0
:102190000C94BC100E94B4100C94B3100E94AF1C9D
:1021A0000E9440050E94410C0C94B8109F92AF927F
:1021B000BF92CF92DF92EF92FF920F931F93CF9334
:1021C000DF93CDB7DEB72A970FB6F894DEBF0FBE08
:1021D000CDBF0E945D0581110E9495108EE8A82E4A
:1021E00081E0B82E00E010E0902E802F0E941105B3
:1021F000D82EF501C1905F01C826B1F40F5F1F4FC3
:102200000230110589F78FEF89838A831B820E9430
:10221000B81C8160782F9D838C8349815A816B81A2
:102220008D810E9474112FC08091EB0181FD0E946D
:102230001705E12CFF24F3948C2D8F21F1F00E94DF
:10224000B110882399F0EE829F82DF2081E009F4AB
:1022500080E088870E94B81C8160782F9A878987E0
:102260004E815F8168858A850E947411F801E2576A
:10227000FE4F8081F826F08206C0E394FF0CF3E065
:10228000EF12DACFBBCF0E94740C0E9452109091D3
:102290008D018917B9F00E94521080938D012A9602
:1022A0000FB6F894DEBF0FBECDBFDF91CF911F9167
:1022B0000F91FF90EF90DF90CF90BF90AF909F90E5
:1022C0000C94EE022A960FB6F894DEBF0FBECDBF77
:1022D000DF91CF911F910F91FF90EF90DF90CF9002
:1022E000BF90AF909F900895DF92EF92FF920F936F
:1022F0001F93CF93DF93CDB7DEB72B970FB6F8942C
:10230000DEBF0FBECDBFF42E052F162FE72ED82E21
:1023100061110E94921AFE01319686E0DF011D9242
:102320008A95E9F77E2D4F2D502F612F8D2D9E819F
:102330000E943E172B960FB6F894DEBF0FBECDBF9E
:10234000DF91CF911F910F91FF90EF90DF90089553
:10235000FC01808191810E94121A0895CF938823F5
:1023600071F1C82F8CEF8C0F813AD0F46C2F8091D3
:102370001701909118010E94EE1B882349F06C2FE1
:1023800080911701909118010E94261C0E94C41A86
:102390006C2F80911701909118010E94241C0CC091
:1023A00080E28C0F883058F4C77081E001C0880F3C
:1023B000CA95EAF70E94751ACF910C94C41ACF916E
:1023C0000895882349F1682F8CEF860F813A38F4FD
:1023D00080911701909118010E94261C0CC080E288
:1023E000860F883050F4677081E001C0880F6A95CD
:1023F000EAF70E947B1A0C94C41A8BE5860F83308F
:1024000020F480E090E00C946910685A673120F461
:1024100080E090E00C947F1008951F93CF93DF939A
:10242000182FEB010E94AE11209741F08FE99FE039
:102430000197F1F700C000002197F6CF812FDF91BF
:10244000CF911F910C94E111893319F060E070E095
:1024500002C060E570E00C940D12882321F00E9408
:10246000751A0C94C41A0895882321F00E947B1ACF
:102470000C94C41A0895CF92DF92EF92FF920F93BB
:102480001F93CF93DF937C01062FC72FFC0112818E
:10249000D581D295DF700E944A1A882399F01123C2
:1024A00089F08C2F807F803421F080E2800F88308B
:1024B00048F082E00E94141B0E944A1A91E0D82E34
:1024C000D92601C0D12CCC2EC2948FE0C8228C2DED
:1024D00090E0FC01EA5AFF4F0C94CC238C2F807FB4
:1024E000CF70882311F0C295C07F112399F0CC23BF
:1024F00009F464C180E2800F883010F0011104C03B
:102500008C2F0E94751A03C08C2F0E94851A0E947E
:10251000C41A54C1802F0E94E111CC2309F473C165
:1025200080E2800F883010F0011104C08C2F0E94CF
:102530007B1A03C08C2F0E948B1A0E94C41A63C19D
:102540008C2F807FCF70803211F0C295C07F002326
:1025500019F00130C9F022C0112371F0DD2341F0E0
:10256000D13031F40E94A51A8C2B0E94AD1A4BC1B8
:102570000E94A51A8C2B1DC0DD2319F0D13009F45F
:1025800042C10E94BA1A25C0112321F0D63008F0AA
:102590003AC10EC0D53008F036C11BC0112361F01E
:1025A000DD2331F0F701858180FF08C18F708583BD
:1025B0008C2F0E942D1227C1DD2359F0093309F019
:1025C0000EC1FFEF27EE83E0F15020408040E1F79D
:1025D00004C18C2F0E94341216C18C2F837009F015
:1025E00045C0111114C1402F429546954770440FC4
:1025F000440F602F6F70862F90E0A0E0B0E0042EB3
:1026000004C0880F991FAA1FBB1F0A94D2F704FFAA
:1026100010C00FE010E020E030E004C0000F111FF8
:10262000221F331F4A95D2F70095109520953095BB
:1026300003C000E010E09801C695C695C370BC01C8
:10264000CD01602B712B822B932BC23049F058F4B3
:10265000C13019F00E948F18DAC00E947D18D7C0CF
:102660000E94A118D4C00E947B18D1C0112319F078
:102670008C2F817001C08695882309F4C8C0402F33
:10268000429546954770440F440F602F6F70862F18
:1026900090E0A0E0B0E0042E04C0880F991FAA1FAC
:1026A000BB1F0A94D2F704FF10C00FE010E020E037
:1026B00030E004C0000F111F221F331F4A95D2F7CC
:1026C000009510952095309503C000E010E098012A
:1026D000C695C695C370BC01CD01602B712B822BB2
:1026E000932BC23049F058F4C13019F00E945419AC
:1026F0008EC00E9442198BC00E94661988C00E9439
:10270000B51885C0CF70112339F08C2F0E94DB18CB
:10271000802F0E942D127BC0802F0E9434128C2F9C
:102720000E94FC1874C0023F01F128F4003F41F000
:10273000013FA1F03FC0033FF9F0043F39F13AC037
:10274000112341F0D53008F05EC08C2F8F710E94AC
:10275000211959C0D63008F056C0F7CF112339F0EF
:102760008C2F8F710E94DB184EC01123C9F38C2F60
:102770008F710E94FC1847C0112329F08C2F8F7194
:102780000E94C61840C00E94C1183DC0112349F0E4
:10279000CF718C2F0E94DB1863E08C2F0E94F91AF6
:1027A00032C081E00E94141BD23068F182E00E94A6
:1027B000141B29C0112331F0DD2391F2802F0E94D8
:1027C000AE1121C0DD2399F2093349F49FEFE7EE02
:1027D000F3E09150E040F040E1F700C00000802FAE
:1027E0000E94E11110C04C2F4F70602FC7010E9452
:1027F000F7020E94EC170FC04C2F4F70602FC701DB
:102800000E94FA0208C088EF8C0D843020F40E94E8
:1028100052100E94EE02DD20C9F00E94461A80FD8F
:1028200015C0F70112820E94401A0E94DB18C701EE
:102830000E9447140E94401ADF91CF911F910F917F
:10284000FF90EF90DF90CF900C94FC18DF91CF9128
:102850001F910F91FF90EF90DF90CF9008950F930D
:102860001F93CF93DF93EC01688179818A810E9465
:102870001D1A8C010E9478190E946918B801CE01B6
:102880000E943B12DF91CF911F910F910895CF933A
:10289000DF93EC01988189812B813C81232B31F0DE
:1028A0008F3F31F481E09F3F19F403C081E001C004
:1028B00080E080FD19C0CE010E948E0281110CC003
:1028C0000E944A1A882381F08A81882369F082E075
:1028D000DF91CF910C94141BCE010E942F14CE01D6
:1028E000DF91CF910C946D02DF91CF9108950E94FA
:1028F000921A0E94A21A0C94C41A80911701909106
:1029000018010E94281C0C9477140E94821A0C94BF
:102910007D14E92FE295EF704E2F50E0FA013297C7
:10292000EE30F105B0F4EA59FF4F0C94CC23803F10
:1029300091F018F4883E68F40EC0843F51F40BC047
:10294000883E48F0813F29F406C093FB882780F930
:10295000089580E0089581E008950E94121A0E946F
:1029600089140895CF93DF9300D000D01F92CDB784
:10297000DEB70F900F900F900F900F90DF91CF91D7
:102980000895CF93DF9300D000D000D0CDB7DEB74D
:1029900026960FB6F894DEBF0FBECDBFDF91CF9164
:1029A00008951F93CF93DF93C091990116E0809112
:1029B0009A01C81799F0D0E01C9FF0011D9FF00DFF
:1029C0001124E556FE4F40815181628173818481DB
:1029D00095810E94C1142196C770E9CFDF91CF91F4
:1029E0001F9108954091CB015091CC016091CD0190
:1029F0007091CE018091CF019091D0010C94C114BF
:102A00000F931F93CF93DF938091D00182958F70A6
:102A100009F05DC08091CD01882309F458C08091F0
:102A2000990110919A016091CB017091CC01C091F4
:102A3000CE01D091CF0191E06F3F09F090E0292FB6
:102A400006E0811709F443C0209721F07F3F21F071
:102A500030E003C031E001C0322F90E030FD34C0DF
:102A6000089FF001099FF00D1124DF01A556BE4F0C
:102A700011963C911197371327C03C91361324C00F
:102A800012963C91129731111FC013964D915C9193
:102A900014974C1B5D0B483C5105B0F48091D0015C
:102AA0008F7080618093D001E056FE4F80818F70DF
:102AB000806180838BEC91E00E944714DF91CF917D
:102AC0001F910F910C94D11401968770BACFDF91AA
:102AD000CF911F910F9108959F92AF92BF92CF9285
:102AE000DF92EF92FF920F931F93CF93DF93CDB7B7
:102AF000DEB761970FB6F894DEBF0FBECDBF8C0175
:102B000085E0F801DE011D9601900D928A95E1F7AE
:102B1000F80140815181E2809091CB016091CC011C
:102B20002091CE013091CF012115310531F06F3F59
:102B300031F481E09F3F19F403C081E001C080E0DF
:102B4000F82FF1709F2E80FD46C1F801A380B4805C
:102B50008BECC82E81E0D82EF090CD01F501E21B60
:102B6000F30BFF2009F4DFC08091D001E83CF105B0
:102B700008F09BC0282F207F09F052C0561313C0C5
:102B8000491311C0FE2CE1100EC08F70806180933C
:102B9000D0010E94F214C6010E9447148091D00116
:102BA000F801858358C1AB2831F05F3F31F481E0F3
:102BB0004F3F19F403C081E001C080E080FD03C0F5
:102BC00081E08E2502C080E090E0F82FF170FF2EAA
:102BD00080FF1CC08091990120919A0136E08217F4
:102BE00009F417C190E0389FF001399FF00D1124CE
:102BF000E556FE4F6181561306C06081461303C03F
:102C00006281E61203C001968770E9CFFE2CEE20A8
:102C100009F421C18091D00181608093D0015AC014
:102C2000561306C0491304C0E11002C0F8019FC04A
:102C30004D875E878D859E850E94AD14882379F12E
:102C4000EE2069F12091D001822F82958F7090E063
:102C5000029774F08091CB019091CC0198878F837B
:102C60001986BB86AA862C87CE0107960E94471438
:102C700086E0F801ABECB1E001900D928A95E1F7A6
:102C80000E9400150E94F2140DC0561729F14D87BD
:102C90005E878D859E850E94AD1481112CC0C80170
:102CA0000E944714FF24F394D6C0282F207F69F791
:102CB0007A2DB98AA88A6E2D89890E94B2148BEC6C
:102CC00091E00E94471486E0F60111928A95E9F797
:102CD0000E94F214F12CBFC04913D9CFE110D7CF15
:102CE000F8018583C8010E94471486E0F60111921D
:102CF0008A95E9F7B0C0EE2091F22091D001822FA1
:102D000082958F7090E002970CF4B2CF8091CB0146
:102D10009091CC019A8389831B82BD82AC822E83E1
:102D2000CE010196A3CFE83CF10508F047C0FE2C88
:102D3000EE2009F4B4CF561330C049132EC02091B1
:102D4000D00120FD21C0822F82958F70482F50E046
:102D500041155105C9F0F80125834F30510541F067
:102D60008F5F982F9295907F822F8F70892B85830C
:102D7000C8010E94471486E0F801ABECB1E0019075
:102D80000D928A95E1F742C086E0F801ABECB1E024
:102D900001900D928A95E1F75EC04D875E878D8523
:102DA0009E850E94AD14811163CF8091D001816016
:102DB0008093D001C8010E9447144DC07A2DB98A72
:102DC000A88A6E2D89890E94B21486E0F6011192BC
:102DD0008A95E9F71BC0EE2009F461CF4D875E8725
:102DE0008D859E850E94AD14F82E882309F457CF57
:102DF00086E0F801ABECB1E001900D928A95E1F725
:102E00008BEC91E00E94A8110E9400150E94F21420
:102E100022C04D875E878D859E850E94121A292FBC
:102E200022952F70223028F49F7039F0811105C04F
:102E30000BC0243028F49F7049F4805E883020F065
:102E4000C8010E9447149F2CF92C05C0F8019581F8
:102E5000907F99F7F9CF8F2D61960FB6F894DEBF6A
:102E60000FBECDBFDF91CF911F910F91FF90EF90DB
:102E7000DF90CF90BF90AF909F9008951F93CF9316
:102E8000DF93CDB7DEB72C970FB6F894DEBF0FBE39
:102E9000CDBF4F83588769877A878B879C87CE0100
:102EA00007960E946C158823D1F09F8188852A851A
:102EB0003B85232B31F08F3F31F481E09F3F19F4A4
:102EC00003C081E001C080E080FD47C04F8158858C
:102ED00069857A858B859C850E94C1143EC086E0F9
:102EE000FE013796DE01119601900D928A95E1F769
:102EF000FF81E8856A857B856115710531F0EF3FBB
:102F000031F481E0FF3F19F403C081E001C080E0AB
:102F100080FD23C020919A0130E0C901019687709D
:102F200099274091990150E084179507F1F1F983B1
:102F3000EA837D836C8396E0929FD001939FB00DCE
:102F40001124A556BE4FFE01319601900D929A951F
:102F5000E1F780939A010E94D11416E080919901C3
:102F600090919A01891771F1189FC001112485561B
:102F70009E4F0E946C15882329F1E09199011E9FB4
:102F8000F0011124E556FE4F408151816281738129
:102F9000848195810E94C1148091990190E00196ED
:102FA0008770992780939901D9CF0E948514109238
:102FB0009A0110929901EBECF1E086E0DF011D929D
:102FC0008A95E9F72C960FB6F894DEBF0FBECDBFF9
:102FD000DF91CF911F910895EF92FF920F931F936E
:102FE000CF93DF938C01892B09F46CC0F12CEE2474
:102FF000E394E8012196F8018491843740F4843009
:1030000008F051C0813081F0823019F15BC0853702
:1030100009F444C0A8F19CE7980F903708F052C01B
:103020008F770E94E11141C00E5F1F4FFE01849116
:1030300090E2980F983050F48770FE2D01C0FF0F7A
:103040008A95EAF78F2F0E94951A14C00E94AE113C
:103050002DC00E5F1F4FFE01849190E2980F9830B3
:1030600060F48770FE2D01C0FF0F8A95EAF78F2F5D
:103070000E949B1A0E94C41A19C00E94E11116C036
:103080000E5F1F4FFE01C491CC2381F08FE99FE0BA
:103090000197F1F700C00000C150F6CF0E5F1F4F3F
:1030A000FE01F49003C00E94AE118E018F2D882383
:1030B00009F49FCFEFE9FFE03197F1F700C000007E
:1030C0008150F5CFDF91CF911F910F91FF90EF903D
:1030D0000895089508950C946A180C946B180E9432
:1030E0006D186093DA017093DB018093DC0190939B
:1030F000DD010C9477140C946F180F931F930091BB
:10310000DA011091DB012091DC013091DD01602BAF
:10311000712B822B932B1F910F910C946F180F938F
:103120001F930091DA011091DB012091DC013091B5
:10313000DD0160237123822393231F910F910C944F
:103140006F180F931F930091DA011091DB0120910A
:10315000DC013091DD0160277127822793271F91C1
:103160000F910C946F180C946A180E94B318609316
:10317000D6017093D7018093D8019093D9010C9414
:10318000771460E070E0CB010C94B5180F931F9397
:1031900041E050E060E070E08A019B0104C0000F54
:1031A000111F221F331F8A95D2F7C901B8011F9141
:1031B0000F910C94B5180F931F9341E050E060E01D
:1031C00070E004C0440F551F661F771F8A95D2F721
:1031D0008091D6019091D701A091D801B091D901E9
:1031E0008A019B01082B192B2A2B3B2BC901B80103
:1031F0001F910F910C94B5180F931F9341E050E06D
:1032000060E070E004C0440F551F661F771F8A9569
:10321000D2F740955095609570958091D601909128
:10322000D701A091D801B091D9018A019B0108234F
:1032300019232A233B23C901B8011F910F910C9434
:10324000B5180F931F9341E050E060E070E004C0B8
:10325000440F551F661F771F8A95D2F78091D601BC
:103260009091D701A091D801B091D9018A019B0119
:10327000082719272A273B27C901B8011F910F9159
:103280000C94B5180F931F930091D6011091D7019C
:103290002091D8013091D901602B712B822B932B77
:1032A0001F910F910C94B5180F931F930091D601A5
:1032B0001091D7012091D8013091D9016023712359
:1032C000822393231F910F910C94B5180F931F9392
:1032D0000091D6011091D7012091D8013091D901E8
:1032E00060277127822793271F910F910C94B5189F
:1032F0000895292F220F920F890FE82FE695E69562
:10330000E695877051E001C0550F8A95EAF785E090
:10331000E89FF0011124EF52FE4F20E030E070E012
:103320004081CB01022E02C0969587950A94E2F760
:103330008170819584278523842781932F5F3F4F58
:103340002530310569F70895292F220F920F890F33
:10335000682F669566956695982F977085E0689FAB
:10336000B001112440E050E080E0FB01E40FF51FC4
:10337000EF52FE4F208130E0092E02C0369527958E
:103380000A94E2F721703327042E01C0220F0A9419
:10339000EAF7822B4F5F5F4F4530510531F70895B3
:1033A000BF92CF92DF92EF92FF920F931F93CF9332
:1033B000DF938C01C090D601D090D701E090D80166
:1033C000F090D9018091DA019091DB01A091DC01AC
:1033D000B091DD01C82AD92AEA2AFB2ACFE1D0E040
:1033E000D701C6010C2E04C0B695A7959795879571
:1033F0000A94D2F780FD04C0219790F7B12C07C042
:10340000BC2EB8018C2F0E9419030197A9F38B2DB4
:10341000DF91CF911F910F91FF90EF90DF90CF90B0
:10342000BF900895CF93DF93EC010E94D019BE01A5
:103430000E941903DF91CF9108951F93CF93DF93DB
:10344000EB0190919801992321F0CB010E94121A6F
:1034500013C0882349F0CB010E94D019182F682F80
:10346000CE010E94791904C0CB010E94A419182F23
:10347000BE01812F0E941903DF91CF911F91089502
:103480008091DE0185958595859508958091DE0171
:10349000877008959091DE01977081E009F480E0D3
:1034A00008959091F80192FB222720F9281751F0F6
:1034B00080FB92F99093F8018091F7019091F801C7
:1034C0000C94571B08958091F80182FB882780F99E
:1034D00091E089270C94511A81E00C94511A80E0F4
:1034E0000C94511A8091EA0108959091EA01892B78
:1034F0008093EA01089580959091EA018923809351
:10350000EA0108951092EA0108959091E901892B4A
:103510008093E901089580959091E9018923809332
:10352000E90108951092E90108959091E801892B2D
:103530008093E801089580959091E8018923809314
:10354000E80108951092E80108958091DF0108953F
:1035500008950C94A81A0C94A91A9091F80192FD60
:1035600008C09091DF01981721F08093DF010C943F
:10357000AB1A08958091DF01882329F01092DF01B2
:1035800080E00C94AB1A0895E0911701F0911801B6
:103590008091EA018083E0911701F09118019081F8
:1035A0008091E901892B8083E0911701F091180146
:1035B00090818091E801892B80838091DF018823AD
:1035C00081F0E0911701F09118019081892B80839F
:1035D00080911701909118010E94E21B81110E94B5
:1035E000BA1A80911701909118010C945E100C94F6
:1035F000A81A9091F80192FD10C098E0899F90015F
:103600001124262B2093DE010E94DB188091DE011D
:103610008595859585950C94F71A0C94DB18109276
:10362000DE0180E00C94F71A2091DE018095822360
:103630008093DE01982F977041F430E0482F082ED8
:10364000000C550B2417350721F49091F80192FFD7
:1036500007C08595859585950E94FC180C940F1BD5
:10366000089580E0089580E090E00E947A2421E0AF
:103670008A3E9E4F09F020E0822F089582E090E07C
:103680000C946C2483E090E00C946C24CF9384E041
:1036900090E00E946C24C82F82E290E00E946C248B
:1036A0002C2F30E0A901582BCA01CF910895CF9358
:1036B000C92F682F84E090E00E9480246C2F82E262
:1036C00090E0CF910C948024AB01BC018FE090E09E
:1036D0000C949224AB01BC0183E190E00C94922401
:1036E00060E070E0CB010C946A1B60E070E0CB01FD
:1036F0000E94641B0C94701B6AEE7EEF80E090E0E9
:103700000E949E2460E082E090E00E94802460E0BD
:1037100083E090E00E9480241092DA011092DB0195
:103720001092DC011092DD0160E084E090E00E94E4
:10373000802460E082E290E00E94802460E085E0E6
:1037400090E00E94802460E086E090E00E94802467
:103750006FEF87E090E00E94802440E050E0BA01E3
:1037600088E090E00E94922460E08DE090E00E946A
:10377000802440E050E0BA0188E190E00E94922469
:1037800060E087E190E00E94802440E050E0BA01D0
:103790008CE190E00E94922460E070E080E290E092
:1037A0000E949E2440E050E0BA0188E190E00E942F
:1037B00092240C94751B0C947C1B682F8EE090E077
:1037C0000C948024FC01329697E080E0915029F01F
:1037D00021912223D9F38F5FF9CF0895662349F011
:1037E000FC01329608962191621729F0E817F90733
:1037F000D1F780E0089581E008959C01FC013296A4
:103800009FEF80E04191461789F09F3F19F44111E5
:1038100001C0982F8F5F8630A9F79F3F39F0F901DB
:10382000E90FF11D97FDFA956283089508959C01B3
:103830002A5F3F4FFC014281461301C0128201966C
:1038400082179307B9F708950C94FD1B0C94171C6D
:10385000029626E0FC0111922A95E9F70895089551
:103860000C942F1C0C942F1C0E94321C0E945D058E
:103870000E94301C80E00E941105811108C081E087
:103880000E94110591E0811103C090E001C091E018
:10389000892F08950C942F1C0C944A1C80911C02B3
:1038A000843049F10E944C1C80E00E94EE0210928C
:1038B000EC0120E488E190E00FB6F894A89580939D
:1038C00060000FBE2093600083B7817F846083BF58
:1038D00083B7816083BF7894889583B78E7F83BFD9
:1038E0000FB6F894A895809160008861809360007D
:1038F000109260000FBE08950C942F1C0E94851436
:103900000E9452100E94EE020C947C1C1F920F9297
:103910000FB60F9211248F939F93AF93BF93809113
:10392000EC01811113C08091140290911502A091B5
:103930001602B09117024196A11DB11D8093140289
:1039400090931502A0931602B0931702BF91AF9106
:103950009F918F910F900FBE0F901F90189582E04E
:1039600084BD93E095BD9AEF97BD80936E00089556
:103970002FB7F8948091140290911502A09116022D
:10398000B09117022FBF08952FB7F89460911402D9
:103990007091150280911602909117022FBF089521
:1039A0009C014FB7F8948091140290911502A09158
:1039B0001602B09117024FBF821B930B08957894A3
:1039C0001F920F920FB60F9211248F939F93AF9374
:1039D000BF938091140290911502A0911602B091AC
:1039E00017020196A11DB11D809314029093150238
:1039F000A0931602B0931702BF91AF919F918F9140
:103A00000F900FBE0F901F90189587E797E7909340
:103A10000108809300089AE088E10FB6F894A89511
:103A2000809360000FBE90936000FFCF909355018C
:103A30008093540108958091F501089508950895A3
:103A4000CF93DF9321E02093E9002FEF3091E8003E
:103A5000215035FD06C035ED3A95F1F700002111F2
:103A6000F5CF2091E80025FF14C0EC0140E050E0C4
:103A700068E070E00E94CA1E8091E8008E77809313
:103A8000E80088E0FE01ADEEB1E001900D928A956C
:103A9000E1F7DF91CF910895089580911B02811184
:103AA00009C00E945B200E94B8208091E2008460DF
:103AB0008093E200089510921B02089508950895DE
:103AC000089542E061EC81E00C94D41F80911E02C5
:103AD000833009F460C030F4813071F0823009F431
:103AE00099C008958A3009F485C08B3009F46BC001
:103AF000893009F0A7C020C080911D02813A09F0E9
:103B0000A1C08091E800877F8093E8008091210226
:103B100090912202892B21F468E08DEE91E003C0A0
:103B200060E080E090E070E00E94151F8091E80066
:103B30008B778093E800089580911D02813209F00F
:103B400081C08091210290912202892B09F07AC0D4
:103B50008091E800877F8093E8008091E80082FDF3
:103B600005C080911C028111F8CF6CC02091F30038
:103B70008091F20090E0922B029729F48091F1005D
:103B80008B7F813021F48091F1008093F501809149
:103B9000E8008B7753C080911D02813A09F052C032
:103BA0008091210290912202892B09F04BC08091D3
:103BB000E800877F8093E8008091E80080FFFCCFD9
:103BC0008091230136C080911D028132D9F5809108
:103BD000210290912202892BA9F58091E800877F2C
:103BE0008093E8000E94092080911F0280932301A6
:103BF0000C94851480911D02813221F58091E8009A
:103C0000877F8093E8000E940920809120028093A2
:103C1000F601089580911D02813AA1F48091E80097
:103C2000877F8093E8008091E80080FFFCCF80913F
:103C3000F6018093F1008091E8008E778093E80090
:103C40000C940920089584B7877F84BF0FB6F89439
:103C5000A895809160008861809360001092600058
:103C60000FBE90E080E80FB6F894809361009093C7
:103C700061000FBE0E94C0100E945B200E94B8200D
:103C80008091E20084608093E20078940E944D234A
:103C90000E94CE1089E191E00E944D1080911C029B
:103CA0008530A9F480911C02853079F40E944E1C65
:103CB00080911A028823B1F30E94341C882391F367
:103CC0000E94B41E0E948514EDCF0E947E1C0E94AB
:103CD000D6100E94CA10E2CF0C946E1E292F3327F3
:103CE00023303105C1F058F42130310579F022300C
:103CF000310591F582E290E02AE433E031C02132CF
:103D00003105E1F02232310501F126C082E190E077
:103D10002CE633E025C099278130910549F028F041
:103D20000297D1F4E2E2F3E005C0E6E4F3E002C07A
:103D3000E2E3F3E0849190E09F0112C0672B61F40D
:103D400089E090E02CE533E00BC0672B29F480E498
:103D500090E02EE733E004C080E090E020E030E027
:103D6000FA0131832083089580E189BD82E189BD14
:103D700009B400FEFDCF8091D8008F7D8093D800DC
:103D80008091E00082608093E0008091E00081FDFE
:103D9000FCCF0895CF92DF92EF92FF920F931F9383
:103DA000CF93DF93EC018B017A010E9428208111CF
:103DB00033C0E114F10439F0F70180819181081BCF
:103DC000190BC80FD91FC12CD12C0115110519F1E0
:103DD0008091E80085FD16C08091E8008E77809381
:103DE000E800E114F10449F0F70180819181C80EE7
:103DF000D91ED182C08285E00FC00E94282088236E
:103E000021F30AC089918093F10001501109FFEF5D
:103E1000CF1ADF0ADACF80E0DF91CF911F910F91A7
:103E2000FF90EF90DF90CF90089520912302309182
:103E300024022617370748F06115710539F42091DF
:103E4000E8002E772093E80001C0B901FC0120E0D2
:103E50006115710579F180911C028823F1F185309B
:103E6000F1F18091E80083FD3CC08091E80082FD83
:103E70002EC08091E80080FFEBCF2091F30080916D
:103E8000F20090E0922B6115710551F08830910598
:103E900038F421912093F100615071090196F3CF1C
:103EA00021E0089709F020E08091E8008E77809368
:103EB000E800CECF2111CFCF0AC080911C02882309
:103EC00061F0853061F08091E80083FD0AC0809147
:103ED000E80082FFF2CF80E0089582E0089583E059
:103EE000089581E00895209123023091240226173D
:103EF000370748F06115710539F42091E8002E77F5
:103F00002093E80001C0B901FC0120E061157105B2
:103F100091F180911C02882309F440C0853009F496
:103F20003FC08091E80083FD3DC08091E80082FDA4
:103F30002FC08091E80080FFE9CF2091F3008091AD
:103F4000F20090E0922B6115710559F088309105CF
:103F500040F424912093F10031966150710901964B
:103F6000F2CF21E0089709F020E08091E8008E77F9
:103F70008093E800CBCF2111CCCF0AC080911C02E6
:103F8000882361F0853061F08091E80083FD0AC0EC
:103F90008091E80082FFF2CF80E0089582E00895EA
:103FA00083E0089581E00895982F973068F5909305
:103FB000E900981739F07091EC002091ED005091D4
:103FC000F00003C0242F762F50E021FD02C09F5F38
:103FD000ECCF3091EB003E7F3093EB003091ED0061
:103FE0003D7F3093ED003091EB0031603093EB007A
:103FF0007093EC002093ED005093F0002091EE00C0
:1040000027FDE5CF80E008958F708093E90081E07F
:10401000089580911D0287FF11C08091E80082FD04
:1040200005C080911C028111F8CF11C08091E80079
:104030008B770BC080911C02882349F08091E800A7
:1040400080FFF8CF8091E8008E778093E800089594
:104050002091E4003091E50095E64091EC00842F3A
:10406000817040FF23C08091E80080FD1DC08091D9
:104070001C02882399F0853099F08091EB0085FD32
:1040800011C04091E4005091E5002417350729F351
:10409000915011F09A01E1CF84E0089582E00895F3
:1040A00083E0089581E0089580E008954091E8005C
:1040B00042FFDDCF08950E94C9200E94D120E0EE8A
:1040C000F0E0808181608083E8EDF0E080818F778F
:1040D000808319BCA7EDB0E08C918E7F8C9380819A
:1040E0008F7E808310921B0208950F931F93CF93AE
:1040F000DF930E94C9200E94D120C8EDD0E08881C2
:104100008F77888388818068888388818F7D888382
:1041100019BC10921C021092180210921A021092EE
:10412000190200EE10E0F80180818B7F8083888186
:104130008160888342E060E080E00E94D41FE1EE6D
:10414000F0E080818E7F8083E2EEF0E0808181600C
:104150008083808188608083F80180818E7F808366
:10416000888180618883DF91CF911F910F9108959D
:10417000E8EDF0E080818F7E8083E7EDF0E08081E4
:104180008160808384E082BF81E080931B020C9475
:104190007520E8EDF0E080818E7F80831092E20050
:1041A00008951092DA001092E10008951F920F9284
:1041B0000FB60F9211242F933F934F935F936F93FA
:1041C0007F938F939F93AF93BF93EF93FF938091D0
:1041D000E10082FF0BC08091E20082FF07C0809166
:1041E000E1008B7F8093E1000E944C238091DA00F4
:1041F00080FF1FC08091D80080FF1BC08091DA0033
:104200008E7F8093DA008091D90080FF0DC080E11D
:1042100089BD82E189BD09B400FEFDCF81E08093B4
:104220001C020E944D1D05C019BC10921C020E9468
:104230005B1D8091E10080FF19C08091E20080FF4A
:1042400015C08091E2008E7F8093E2008091E200B1
:1042500080618093E2008091D80080628093D800D2
:1042600019BC85E080931C020E945F1D8091E100D3
:1042700084FF30C08091E20084FF2CC080E189BDC2
:1042800082E189BD09B400FEFDCF8091D8008F7D09
:104290008093D8008091E1008F7E8093E10080912F
:1042A000E2008F7E8093E2008091E2008160809343
:1042B000E20080911802882311F084E007C0809109
:1042C000E30087FD02C081E001C083E080931C020F
:1042D0000E94601D8091E10083FF29C08091E2006F
:1042E00083FF25C08091E100877F8093E10082E019
:1042F00080931C02109218028091E1008E7F8093BF
:10430000E1008091E2008E7F8093E2008091E200E4
:1043100080618093E20042E060E080E00E94D41F70
:104320008091F00088608093F0000E945E1DFF91F4
:10433000EF91BF91AF919F918F917F916F915F911D
:104340004F913F912F910F900FBE0F901F90189596
:104350001F920F920FB60F9211242F933F934F93FA
:104360005F936F937F938F939F93AF93BF93CF93FD
:10437000DF93EF93FF93C091E900CF708091EC0041
:10438000D82FD17080FDD0E81092E9008091F00024
:10439000877F8093F00078940E94EC211092E900CE
:1043A0008091F00088608093F000CD2BCF70C09397
:1043B000E900FF91EF91DF91CF91BF91AF919F9174
:1043C0008F917F916F915F914F913F912F910F90BE
:1043D0000FBE0F901F9018951F93CF93DF93CDB70B
:1043E000DEB7AA970FB6F894DEBF0FBECDBFEDE1E2
:1043F000F2E08091F100819322E0E532F207C9F703
:104400000E94661D8091E80083FF2EC180911D02ED
:1044100090911E02492F50E04A30510508F024C106
:10442000FA01EC58FF4F0C94CC23803821F08238ED
:1044300009F01AC108C08091190290911A029923BB
:1044400089F082600FC0809121028F70873008F060
:104450000BC18093E9008091EB0085FB882780F9F0
:104460001092E9009091E800977F9093E800809384
:10447000F1001092F100D1C0282F2D7F09F0F4C077
:10448000882319F0823061F0EFC080911F028130E3
:1044900009F0EAC0933009F080E080931A022EC040
:1044A00080911F0281112AC0809121028F702FEF0D
:1044B000280F263008F0D8C08093E9002091EB0047
:1044C00020FF1CC0933021F48091EB00806214C067
:1044D0009091EB0090619093EB0021E030E0A90116
:1044E00002C0440F551F8A95E2F74093EA001092EC
:1044F000EA008091EB0088608093EB001092E90065
:104500008091E800877F8093E8000E940920ACC07A
:104510008111AAC010911F021F778091E30080785B
:10452000812B8093E3008091E800877F8093E800EF
:104530000E9409208091E80080FFFCCF8091E30079
:1045400080688093E300111102C082E001C083E023
:1045500080931C0289C08058823008F085C0809109
:104560001F02909120028C3D53E0950779F583E07E
:104570008A838AE289834FB7F894DE01139620E09C
:104580003EE051E2E32FF0E050935700E49120FF2A
:1045900003C0E295EF703F5FEF708E2F90E0EA303E
:1045A00010F0C79601C0C0968D939D932F5F243164
:1045B00049F74FBF8091E800877F8093E8006AE267
:1045C00070E0CE0101960E94151F16C06091210275
:1045D00070912202AE014F5F5F4F0E946C1EBC01C2
:1045E000892B09F441C09091E800977F9093E800EF
:1045F00089819A810E94731F8091E8008B77809354
:10460000E80032C0803881F58091E800877F809390
:10461000E800809118028093F1008091E8008E7785
:1046200072CF811121C080911F02909120029927A1
:104630000297D4F48091E800877F8093E80080910E
:104640001F02809318020E94092080911802811194
:1046500006C08091E30087FD02C081E001C084E0D4
:1046600080931C020E94611D8091E80083FF0AC0B4
:104670008091E800877F8093E8008091EB00806262
:104680008093EB00AA960FB6F894DEBF0FBECDBFA5
:10469000DF91CF911F9108950895CF9380911C02CF
:1046A0008823A1F0C091E900CF709091EC00892F90
:1046B000817090FD80E8C82B1092E9008091E8009D
:1046C00083FD0E94EC21CF70C093E900CF91089543
:1046D000991B79E004C0991F961708F0961B881F54
:1046E0007A95C9F78095089587FB082E062687FDE1
:1046F000819567FD61950E9468230EF4919507FCF2
:1047000081950895AA1BBB1B51E107C0AA1FBB1FBF
:10471000A617B70710F0A61BB70B881F991F5A954D
:10472000A9F780959095BC01CD01089597FB072EC0
:1047300016F4009407D077FD09D00E94822307FC6D
:1047400005D03EF4909581959F4F089570956195A1
:104750007F4F0895A1E21A2EAA1BBB1BFD010DC0BD
:10476000AA1FBB1FEE1FFF1FA217B307E407F50721
:1047700020F0A21BB30BE40BF50B661F771F881FFD
:10478000991F1A9469F760957095809590959B0193
:10479000AC01BD01CF010895EE0FFF1F0590F4910C
:1047A000E02D09940E94DA23332312F48A1B9B0B19
:1047B0000C94EB23A29FB001B39FC001A39F700D87
:1047C000811D1124911DB29F700D811D1124911D19
:1047D00008950E94DA23B7FF0895821B930B089572
:1047E0000E94DA23A59F900DB49F900DA49F800D89
:1047F000911D11240895B7FF0C94F0230E94F0231B
:10480000821B930B08958F929F92AF92BF92CF928B
:10481000DF92EF92FF92CF93DF93EC016881798171
:104820008A819B81611571058105910521F464E2FE
:1048300079ED8BE597E02DE133EF41E050E00E9408
:10484000B42449015A019B01AC01A7EAB1E40E94DA
:10485000F0236B017C01ACEEB4EFA50194010E9442
:10486000FE23DC01CB018C0D9D1DAE1DBF1DB7FFCE
:1048700003C00197A109B04888839983AA83BB83A9
:104880009F77DF91CF91FF90EF90DF90CF90BF9017
:10489000AF909F908F9008950E940324089580E028
:1048A00091E00E9403240895A0E0B0E0809300010D
:1048B00090930101A0930201B09303010895FC01BC
:1048C0004150504030F001900616D1F73197CF019A
:1048D0000895882799270895F999FECF92BD81BD43
:1048E000F89A992780B50895A6E1B0E044E050E039
:1048F0000C94A624A8E1B0E042E050E00C94A62479
:10490000262FF999FECF92BD81BDF89A019700B488
:10491000021639F01FBA20BD0FB6F894FA9AF99A28
:104920000FBE08950396272F0E9481240E948024A1
:10493000252F0E948124242F0C9481240196272F57
:104940000E9481240C948024DC01CB01FC01F999A4
:10495000FECF06C0F2BDE1BDF89A319600B40D92CB
:1049600041505040B8F70895052E97FB1EF400946F
:104970000E94CB2457FD07D00E94AA2307FC03D036
:104980004EF40C94CB2450954095309521953F4F93
:104990004F4F5F4F089590958095709561957F4F2B
:0A49A0008F4F9F4F0895F894FFCF4A
:1049AA0001000000010102000600060601191A1B97
:1049BA001C1D1E1F202122E0011B1D201D1E1D4C37
:1049CA001D1F1D01F4F5F69466000102020202069B
:1049DA0006060909090909090F0F0F0F0F0F151507
:1049EA001518191919191919191919192324252505
:0449FA002525252525
:00000001FF
